{
  "_format": "hh-sol-artifact-1",
  "contractName": "Soccer",
  "sourceName": "contracts/Soccer.sol",
  "abi": [
    {
      "inputs": [],
      "stateMutability": "nonpayable",
      "type": "constructor"
    },
    {
      "anonymous": false,
      "inputs": [
        {
          "indexed": true,
          "internalType": "address",
          "name": "owner",
          "type": "address"
        },
        {
          "indexed": true,
          "internalType": "address",
          "name": "approved",
          "type": "address"
        },
        {
          "indexed": true,
          "internalType": "uint256",
          "name": "tokenId",
          "type": "uint256"
        }
      ],
      "name": "Approval",
      "type": "event"
    },
    {
      "anonymous": false,
      "inputs": [
        {
          "indexed": true,
          "internalType": "address",
          "name": "owner",
          "type": "address"
        },
        {
          "indexed": true,
          "internalType": "address",
          "name": "operator",
          "type": "address"
        },
        {
          "indexed": false,
          "internalType": "bool",
          "name": "approved",
          "type": "bool"
        }
      ],
      "name": "ApprovalForAll",
      "type": "event"
    },
    {
      "anonymous": false,
      "inputs": [
        {
          "indexed": true,
          "internalType": "address",
          "name": "from",
          "type": "address"
        },
        {
          "indexed": true,
          "internalType": "address",
          "name": "to",
          "type": "address"
        },
        {
          "indexed": true,
          "internalType": "uint256",
          "name": "tokenId",
          "type": "uint256"
        }
      ],
      "name": "Transfer",
      "type": "event"
    },
    {
      "anonymous": false,
      "inputs": [
        {
          "indexed": true,
          "internalType": "address",
          "name": "from",
          "type": "address"
        },
        {
          "indexed": true,
          "internalType": "address",
          "name": "to",
          "type": "address"
        },
        {
          "indexed": true,
          "internalType": "uint256",
          "name": "id",
          "type": "uint256"
        },
        {
          "indexed": false,
          "internalType": "uint256",
          "name": "price",
          "type": "uint256"
        }
      ],
      "name": "cardSold",
      "type": "event"
    },
    {
      "inputs": [
        {
          "internalType": "address",
          "name": "addr",
          "type": "address"
        }
      ],
      "name": "addCreator",
      "outputs": [],
      "stateMutability": "nonpayable",
      "type": "function"
    },
    {
      "inputs": [
        {
          "internalType": "address",
          "name": "",
          "type": "address"
        }
      ],
      "name": "admins",
      "outputs": [
        {
          "internalType": "bool",
          "name": "",
          "type": "bool"
        }
      ],
      "stateMutability": "view",
      "type": "function"
    },
    {
      "inputs": [
        {
          "internalType": "address",
          "name": "to",
          "type": "address"
        },
        {
          "internalType": "uint256",
          "name": "tokenId",
          "type": "uint256"
        }
      ],
      "name": "approve",
      "outputs": [],
      "stateMutability": "nonpayable",
      "type": "function"
    },
    {
      "inputs": [
        {
          "internalType": "address",
          "name": "owner",
          "type": "address"
        }
      ],
      "name": "balanceOf",
      "outputs": [
        {
          "internalType": "uint256",
          "name": "",
          "type": "uint256"
        }
      ],
      "stateMutability": "view",
      "type": "function"
    },
    {
      "inputs": [
        {
          "internalType": "uint256",
          "name": "id",
          "type": "uint256"
        }
      ],
      "name": "buyCardFromMarket",
      "outputs": [],
      "stateMutability": "payable",
      "type": "function"
    },
    {
      "inputs": [
        {
          "internalType": "uint256",
          "name": "",
          "type": "uint256"
        }
      ],
      "name": "cardCreator",
      "outputs": [
        {
          "internalType": "address",
          "name": "",
          "type": "address"
        }
      ],
      "stateMutability": "view",
      "type": "function"
    },
    {
      "inputs": [
        {
          "internalType": "uint256",
          "name": "",
          "type": "uint256"
        }
      ],
      "name": "cards",
      "outputs": [
        {
          "internalType": "uint256",
          "name": "id",
          "type": "uint256"
        },
        {
          "internalType": "uint256",
          "name": "createdAt",
          "type": "uint256"
        },
        {
          "internalType": "address payable",
          "name": "owner",
          "type": "address"
        },
        {
          "internalType": "address payable",
          "name": "creator",
          "type": "address"
        },
        {
          "internalType": "uint256",
          "name": "totalAmount",
          "type": "uint256"
        },
        {
          "internalType": "uint256",
          "name": "price",
          "type": "uint256"
        }
      ],
      "stateMutability": "view",
      "type": "function"
    },
    {
      "inputs": [],
      "name": "checkFunds",
      "outputs": [
        {
          "internalType": "uint256",
          "name": "",
          "type": "uint256"
        }
      ],
      "stateMutability": "view",
      "type": "function"
    },
    {
      "inputs": [
        {
          "internalType": "uint256",
          "name": "tokenId",
          "type": "uint256"
        }
      ],
      "name": "getApproved",
      "outputs": [
        {
          "internalType": "address",
          "name": "",
          "type": "address"
        }
      ],
      "stateMutability": "view",
      "type": "function"
    },
    {
      "inputs": [
        {
          "internalType": "address",
          "name": "owner",
          "type": "address"
        },
        {
          "internalType": "address",
          "name": "operator",
          "type": "address"
        }
      ],
      "name": "isApprovedForAll",
      "outputs": [
        {
          "internalType": "bool",
          "name": "",
          "type": "bool"
        }
      ],
      "stateMutability": "view",
      "type": "function"
    },
    {
      "inputs": [
        {
          "internalType": "string",
          "name": "tokenURI",
          "type": "string"
        },
        {
          "internalType": "uint256",
          "name": "amount",
          "type": "uint256"
        },
        {
          "internalType": "uint256",
          "name": "price",
          "type": "uint256"
        }
      ],
      "name": "mint",
      "outputs": [],
      "stateMutability": "nonpayable",
      "type": "function"
    },
    {
      "inputs": [],
      "name": "name",
      "outputs": [
        {
          "internalType": "string",
          "name": "",
          "type": "string"
        }
      ],
      "stateMutability": "view",
      "type": "function"
    },
    {
      "inputs": [
        {
          "internalType": "uint256",
          "name": "tokenId",
          "type": "uint256"
        }
      ],
      "name": "ownerOf",
      "outputs": [
        {
          "internalType": "address",
          "name": "",
          "type": "address"
        }
      ],
      "stateMutability": "view",
      "type": "function"
    },
    {
      "inputs": [],
      "name": "retrieveFunds",
      "outputs": [],
      "stateMutability": "nonpayable",
      "type": "function"
    },
    {
      "inputs": [
        {
          "internalType": "address",
          "name": "from",
          "type": "address"
        },
        {
          "internalType": "address",
          "name": "to",
          "type": "address"
        },
        {
          "internalType": "uint256",
          "name": "tokenId",
          "type": "uint256"
        }
      ],
      "name": "safeTransferFrom",
      "outputs": [],
      "stateMutability": "nonpayable",
      "type": "function"
    },
    {
      "inputs": [
        {
          "internalType": "address",
          "name": "from",
          "type": "address"
        },
        {
          "internalType": "address",
          "name": "to",
          "type": "address"
        },
        {
          "internalType": "uint256",
          "name": "tokenId",
          "type": "uint256"
        },
        {
          "internalType": "bytes",
          "name": "_data",
          "type": "bytes"
        }
      ],
      "name": "safeTransferFrom",
      "outputs": [],
      "stateMutability": "nonpayable",
      "type": "function"
    },
    {
      "inputs": [
        {
          "internalType": "address",
          "name": "operator",
          "type": "address"
        },
        {
          "internalType": "bool",
          "name": "approved",
          "type": "bool"
        }
      ],
      "name": "setApprovalForAll",
      "outputs": [],
      "stateMutability": "nonpayable",
      "type": "function"
    },
    {
      "inputs": [
        {
          "internalType": "bytes4",
          "name": "interfaceId",
          "type": "bytes4"
        }
      ],
      "name": "supportsInterface",
      "outputs": [
        {
          "internalType": "bool",
          "name": "",
          "type": "bool"
        }
      ],
      "stateMutability": "view",
      "type": "function"
    },
    {
      "inputs": [],
      "name": "symbol",
      "outputs": [
        {
          "internalType": "string",
          "name": "",
          "type": "string"
        }
      ],
      "stateMutability": "view",
      "type": "function"
    },
    {
      "inputs": [
        {
          "internalType": "uint256",
          "name": "index",
          "type": "uint256"
        }
      ],
      "name": "tokenByIndex",
      "outputs": [
        {
          "internalType": "uint256",
          "name": "",
          "type": "uint256"
        }
      ],
      "stateMutability": "view",
      "type": "function"
    },
    {
      "inputs": [
        {
          "internalType": "address",
          "name": "owner",
          "type": "address"
        },
        {
          "internalType": "uint256",
          "name": "index",
          "type": "uint256"
        }
      ],
      "name": "tokenOfOwnerByIndex",
      "outputs": [
        {
          "internalType": "uint256",
          "name": "",
          "type": "uint256"
        }
      ],
      "stateMutability": "view",
      "type": "function"
    },
    {
      "inputs": [
        {
          "internalType": "uint256",
          "name": "tokenId",
          "type": "uint256"
        }
      ],
      "name": "tokenURI",
      "outputs": [
        {
          "internalType": "string",
          "name": "",
          "type": "string"
        }
      ],
      "stateMutability": "view",
      "type": "function"
    },
    {
      "inputs": [],
      "name": "totalSupply",
      "outputs": [
        {
          "internalType": "uint256",
          "name": "",
          "type": "uint256"
        }
      ],
      "stateMutability": "view",
      "type": "function"
    },
    {
      "inputs": [
        {
          "internalType": "address",
          "name": "from",
          "type": "address"
        },
        {
          "internalType": "address",
          "name": "to",
          "type": "address"
        },
        {
          "internalType": "uint256",
          "name": "tokenId",
          "type": "uint256"
        }
      ],
      "name": "transferFrom",
      "outputs": [],
      "stateMutability": "nonpayable",
      "type": "function"
    }
  ],
  "bytecode": "0x60a06040526101f4600f553480156200001757600080fd5b506040518060400160405280600c81526020017f536f6363657220436172647300000000000000000000000000000000000000008152506040518060400160405280600481526020017f534f4b520000000000000000000000000000000000000000000000000000000081525081600090805190602001906200009c929190620000f5565b508060019080519060200190620000b5929190620000f5565b5050503373ffffffffffffffffffffffffffffffffffffffff1660808173ffffffffffffffffffffffffffffffffffffffff1660601b815250506200020a565b8280546200010390620001a5565b90600052602060002090601f01602090048101928262000127576000855562000173565b82601f106200014257805160ff191683800117855562000173565b8280016001018555821562000173579182015b828111156200017257825182559160200191906001019062000155565b5b50905062000182919062000186565b5090565b5b80821115620001a157600081600090555060010162000187565b5090565b60006002820490506001821680620001be57607f821691505b60208210811415620001d557620001d4620001db565b5b50919050565b7f4e487b7100000000000000000000000000000000000000000000000000000000600052602260045260246000fd5b60805160601c6145b2620002536000396000818161078701528181610815015281816109e501528181610d9a01528181610fdd0152818161106b01526110f901526145b26000f3fe60806040526004361061014b5760003560e01c8063475749b2116100b65780638dc107681161006f5780638dc10768146104b957806395d89b41146104fb578063a22cb46514610526578063b88d4fde1461054f578063c87b56dd14610578578063e985e9c5146105b55761014b565b8063475749b2146103925780634f6ccce7146103cf57806361b20d8c1461040c5780636352211e146104235780636ac408e51461046057806370a082311461047c5761014b565b80631c635ded116101085780631c635ded1461027457806323b872dd1461029d5780632f745c59146102c65780633b9dce051461030357806342842e0e1461032c578063429b62e5146103555761014b565b806301ffc9a71461015057806306fdde031461018d578063081812fc146101b857806308d233dc146101f5578063095ea7b31461022057806318160ddd14610249575b600080fd5b34801561015c57600080fd5b5061017760048036038101906101729190612f7a565b6105f2565b6040516101849190613568565b60405180910390f35b34801561019957600080fd5b506101a261066c565b6040516101af9190613583565b60405180910390f35b3480156101c457600080fd5b506101df60048036038101906101da9190613043565b6106fe565b6040516101ec9190613501565b60405180910390f35b34801561020157600080fd5b5061020a610783565b60405161021791906138e5565b60405180910390f35b34801561022c57600080fd5b5061024760048036038101906102429190612f3a565b6108a7565b005b34801561025557600080fd5b5061025e6109bf565b60405161026b91906138e5565b60405180910390f35b34801561028057600080fd5b5061029b60048036038101906102969190612fd4565b6109cc565b005b3480156102a957600080fd5b506102c460048036038101906102bf9190612e24565b610c7c565b005b3480156102d257600080fd5b506102ed60048036038101906102e89190612f3a565b610cdc565b6040516102fa91906138e5565b60405180910390f35b34801561030f57600080fd5b5061032a60048036038101906103259190612db7565b610d81565b005b34801561033857600080fd5b50610353600480360381019061034e9190612e24565b610ef7565b005b34801561036157600080fd5b5061037c60048036038101906103779190612db7565b610f17565b6040516103899190613568565b60405180910390f35b34801561039e57600080fd5b506103b960048036038101906103b49190613043565b610f37565b6040516103c69190613501565b60405180910390f35b3480156103db57600080fd5b506103f660048036038101906103f19190613043565b610f6a565b60405161040391906138e5565b60405180910390f35b34801561041857600080fd5b50610421610fdb565b005b34801561042f57600080fd5b5061044a60048036038101906104459190613043565b611160565b6040516104579190613501565b60405180910390f35b61047a60048036038101906104759190613043565b611212565b005b34801561048857600080fd5b506104a3600480360381019061049e9190612db7565b611533565b6040516104b091906138e5565b60405180910390f35b3480156104c557600080fd5b506104e060048036038101906104db9190613043565b6115eb565b6040516104f296959493929190613900565b60405180910390f35b34801561050757600080fd5b50610510611667565b60405161051d9190613583565b60405180910390f35b34801561053257600080fd5b5061054d60048036038101906105489190612efa565b6116f9565b005b34801561055b57600080fd5b5061057660048036038101906105719190612e77565b61170f565b005b34801561058457600080fd5b5061059f600480360381019061059a9190613043565b611771565b6040516105ac9190613583565b60405180910390f35b3480156105c157600080fd5b506105dc60048036038101906105d79190612de4565b6118c3565b6040516105e99190613568565b60405180910390f35b60007f780e9d63000000000000000000000000000000000000000000000000000000007bffffffffffffffffffffffffffffffffffffffffffffffffffffffff1916827bffffffffffffffffffffffffffffffffffffffffffffffffffffffff19161480610665575061066482611957565b5b9050919050565b60606000805461067b90613c08565b80601f01602080910402602001604051908101604052809291908181526020018280546106a790613c08565b80156106f45780601f106106c9576101008083540402835291602001916106f4565b820191906000526020600020905b8154815290600101906020018083116106d757829003601f168201915b5050505050905090565b600061070982611a39565b610748576040517f08c379a000000000000000000000000000000000000000000000000000000000815260040161073f90613805565b60405180910390fd5b6004600083815260200190815260200160002060009054906101000a900473ffffffffffffffffffffffffffffffffffffffff169050919050565b60007f000000000000000000000000000000000000000000000000000000000000000073ffffffffffffffffffffffffffffffffffffffff163373ffffffffffffffffffffffffffffffffffffffff1614610813576040517f08c379a000000000000000000000000000000000000000000000000000000000815260040161080a906136c5565b60405180910390fd5b7f000000000000000000000000000000000000000000000000000000000000000073ffffffffffffffffffffffffffffffffffffffff163373ffffffffffffffffffffffffffffffffffffffff16146108a1576040517f08c379a0000000000000000000000000000000000000000000000000000000008152600401610898906136c5565b60405180910390fd5b47905090565b60006108b282611160565b90508073ffffffffffffffffffffffffffffffffffffffff168373ffffffffffffffffffffffffffffffffffffffff161415610923576040517f08c379a000000000000000000000000000000000000000000000000000000000815260040161091a90613845565b60405180910390fd5b8073ffffffffffffffffffffffffffffffffffffffff16610942611aa5565b73ffffffffffffffffffffffffffffffffffffffff16148061097157506109708161096b611aa5565b6118c3565b5b6109b0576040517f08c379a00000000000000000000000000000000000000000000000000000000081526004016109a790613725565b60405180910390fd5b6109ba8383611aad565b505050565b6000600880549050905090565b3373ffffffffffffffffffffffffffffffffffffffff167f000000000000000000000000000000000000000000000000000000000000000073ffffffffffffffffffffffffffffffffffffffff161480610a6f5750600e60003373ffffffffffffffffffffffffffffffffffffffff1673ffffffffffffffffffffffffffffffffffffffff16815260200190815260200160002060009054906101000a900460ff165b610aae576040517f08c379a0000000000000000000000000000000000000000000000000000000008152600401610aa5906135a5565b60405180910390fd5b60005b82811015610c7657610ac3600b611b66565b6000610acf600b611b7c565b9050610adb3082611b8a565b610ae58186611d64565b33600c600083815260200190815260200160002060006101000a81548173ffffffffffffffffffffffffffffffffffffffff021916908373ffffffffffffffffffffffffffffffffffffffff16021790555060006040518060c001604052808381526020014281526020013073ffffffffffffffffffffffffffffffffffffffff1681526020013373ffffffffffffffffffffffffffffffffffffffff16815260200186815260200185815250905080600d6000848152602001908152602001600020600082015181600001556020820151816001015560408201518160020160006101000a81548173ffffffffffffffffffffffffffffffffffffffff021916908373ffffffffffffffffffffffffffffffffffffffff16021790555060608201518160030160006101000a81548173ffffffffffffffffffffffffffffffffffffffff021916908373ffffffffffffffffffffffffffffffffffffffff1602179055506080820151816004015560a0820151816005015590505050508080610c6e90613c6b565b915050610ab1565b50505050565b610c8d610c87611aa5565b82611dd8565b610ccc576040517f08c379a0000000000000000000000000000000000000000000000000000000008152600401610cc390613885565b60405180910390fd5b610cd7838383611eb6565b505050565b6000610ce783611533565b8210610d28576040517f08c379a0000000000000000000000000000000000000000000000000000000008152600401610d1f906135c5565b60405180910390fd5b600660008473ffffffffffffffffffffffffffffffffffffffff1673ffffffffffffffffffffffffffffffffffffffff168152602001908152602001600020600083815260200190815260200160002054905092915050565b3373ffffffffffffffffffffffffffffffffffffffff167f000000000000000000000000000000000000000000000000000000000000000073ffffffffffffffffffffffffffffffffffffffff1614610e0f576040517f08c379a0000000000000000000000000000000000000000000000000000000008152600401610e06906138a5565b60405180910390fd5b600e60008273ffffffffffffffffffffffffffffffffffffffff1673ffffffffffffffffffffffffffffffffffffffff16815260200190815260200160002060009054906101000a900460ff1615610e9c576040517f08c379a0000000000000000000000000000000000000000000000000000000008152600401610e93906137e5565b60405180910390fd5b6001600e60008373ffffffffffffffffffffffffffffffffffffffff1673ffffffffffffffffffffffffffffffffffffffff16815260200190815260200160002060006101000a81548160ff02191690831515021790555050565b610f128383836040518060200160405280600081525061170f565b505050565b600e6020528060005260406000206000915054906101000a900460ff1681565b600c6020528060005260406000206000915054906101000a900473ffffffffffffffffffffffffffffffffffffffff1681565b6000610f746109bf565b8210610fb5576040517f08c379a0000000000000000000000000000000000000000000000000000000008152600401610fac906138c5565b60405180910390fd5b60088281548110610fc957610fc8613da1565b5b90600052602060002001549050919050565b7f000000000000000000000000000000000000000000000000000000000000000073ffffffffffffffffffffffffffffffffffffffff163373ffffffffffffffffffffffffffffffffffffffff1614611069576040517f08c379a0000000000000000000000000000000000000000000000000000000008152600401611060906136c5565b60405180910390fd5b7f000000000000000000000000000000000000000000000000000000000000000073ffffffffffffffffffffffffffffffffffffffff163373ffffffffffffffffffffffffffffffffffffffff16146110f7576040517f08c379a00000000000000000000000000000000000000000000000000000000081526004016110ee906136c5565b60405180910390fd5b7f000000000000000000000000000000000000000000000000000000000000000073ffffffffffffffffffffffffffffffffffffffff166108fc479081150290604051600060405180830381858888f1935050505015801561115d573d6000803e3d6000fd5b50565b6000806002600084815260200190815260200160002060009054906101000a900473ffffffffffffffffffffffffffffffffffffffff169050600073ffffffffffffffffffffffffffffffffffffffff168173ffffffffffffffffffffffffffffffffffffffff161415611209576040517f08c379a000000000000000000000000000000000000000000000000000000000815260040161120090613765565b60405180910390fd5b80915050919050565b3073ffffffffffffffffffffffffffffffffffffffff16600d600083815260200190815260200160002060020160009054906101000a900473ffffffffffffffffffffffffffffffffffffffff1673ffffffffffffffffffffffffffffffffffffffff16146112b6576040517f08c379a00000000000000000000000000000000000000000000000000000000081526004016112ad90613645565b60405180910390fd5b3373ffffffffffffffffffffffffffffffffffffffff16600d600083815260200190815260200160002060020160009054906101000a900473ffffffffffffffffffffffffffffffffffffffff1673ffffffffffffffffffffffffffffffffffffffff16141561135b576040517f08c379a0000000000000000000000000000000000000000000000000000000008152600401611352906136e5565b60405180910390fd5b34600d600083815260200190815260200160002060050154146113b3576040517f08c379a00000000000000000000000000000000000000000000000000000000081526004016113aa90613865565b60405180910390fd5b600d6000828152602001908152602001600020600001543373ffffffffffffffffffffffffffffffffffffffff163073ffffffffffffffffffffffffffffffffffffffff167fd22616bbd3b0618324997a61c7b0385a54eb52f39fb0cba7bc4651b786d9cbc1600d60008681526020019081526020016000206005015460405161143d91906138e5565b60405180910390a460006114503461211d565b9050600d600083815260200190815260200160002060030160009054906101000a900473ffffffffffffffffffffffffffffffffffffffff1673ffffffffffffffffffffffffffffffffffffffff166108fc829081150290604051600060405180830381858888f193505050501580156114ce573d6000803e3d6000fd5b506114da303384611eb6565b33600d600084815260200190815260200160002060020160006101000a81548173ffffffffffffffffffffffffffffffffffffffff021916908373ffffffffffffffffffffffffffffffffffffffff1602179055505050565b60008073ffffffffffffffffffffffffffffffffffffffff168273ffffffffffffffffffffffffffffffffffffffff1614156115a4576040517f08c379a000000000000000000000000000000000000000000000000000000000815260040161159b90613745565b60405180910390fd5b600360008373ffffffffffffffffffffffffffffffffffffffff1673ffffffffffffffffffffffffffffffffffffffff168152602001908152602001600020549050919050565b600d6020528060005260406000206000915090508060000154908060010154908060020160009054906101000a900473ffffffffffffffffffffffffffffffffffffffff16908060030160009054906101000a900473ffffffffffffffffffffffffffffffffffffffff16908060040154908060050154905086565b60606001805461167690613c08565b80601f01602080910402602001604051908101604052809291908181526020018280546116a290613c08565b80156116ef5780601f106116c4576101008083540402835291602001916116ef565b820191906000526020600020905b8154815290600101906020018083116116d257829003601f168201915b5050505050905090565b61170b611704611aa5565b838361219b565b5050565b61172061171a611aa5565b83611dd8565b61175f576040517f08c379a000000000000000000000000000000000000000000000000000000000815260040161175690613885565b60405180910390fd5b61176b84848484612308565b50505050565b606061177c82611a39565b6117bb576040517f08c379a00000000000000000000000000000000000000000000000000000000081526004016117b2906137c5565b60405180910390fd5b6000600a600084815260200190815260200160002080546117db90613c08565b80601f016020809104026020016040519081016040528092919081815260200182805461180790613c08565b80156118545780601f1061182957610100808354040283529160200191611854565b820191906000526020600020905b81548152906001019060200180831161183757829003601f168201915b505050505090506000611865612364565b905060008151141561187b5781925050506118be565b6000825111156118b05780826040516020016118989291906134dd565b604051602081830303815290604052925050506118be565b6118b98461237b565b925050505b919050565b6000600560008473ffffffffffffffffffffffffffffffffffffffff1673ffffffffffffffffffffffffffffffffffffffff16815260200190815260200160002060008373ffffffffffffffffffffffffffffffffffffffff1673ffffffffffffffffffffffffffffffffffffffff16815260200190815260200160002060009054906101000a900460ff16905092915050565b60007f80ac58cd000000000000000000000000000000000000000000000000000000007bffffffffffffffffffffffffffffffffffffffffffffffffffffffff1916827bffffffffffffffffffffffffffffffffffffffffffffffffffffffff19161480611a2257507f5b5e139f000000000000000000000000000000000000000000000000000000007bffffffffffffffffffffffffffffffffffffffffffffffffffffffff1916827bffffffffffffffffffffffffffffffffffffffffffffffffffffffff1916145b80611a325750611a3182612422565b5b9050919050565b60008073ffffffffffffffffffffffffffffffffffffffff166002600084815260200190815260200160002060009054906101000a900473ffffffffffffffffffffffffffffffffffffffff1673ffffffffffffffffffffffffffffffffffffffff1614159050919050565b600033905090565b816004600083815260200190815260200160002060006101000a81548173ffffffffffffffffffffffffffffffffffffffff021916908373ffffffffffffffffffffffffffffffffffffffff160217905550808273ffffffffffffffffffffffffffffffffffffffff16611b2083611160565b73ffffffffffffffffffffffffffffffffffffffff167f8c5be1e5ebec7d5bd14f71427d1e84f3dd0314c0f7b2291e5b200ac8c7c3b92560405160405180910390a45050565b6001816000016000828254019250508190555050565b600081600001549050919050565b600073ffffffffffffffffffffffffffffffffffffffff168273ffffffffffffffffffffffffffffffffffffffff161415611bfa576040517f08c379a0000000000000000000000000000000000000000000000000000000008152600401611bf1906137a5565b60405180910390fd5b611c0381611a39565b15611c43576040517f08c379a0000000000000000000000000000000000000000000000000000000008152600401611c3a90613625565b60405180910390fd5b611c4f6000838361248c565b6001600360008473ffffffffffffffffffffffffffffffffffffffff1673ffffffffffffffffffffffffffffffffffffffff1681526020019081526020016000206000828254611c9f9190613a2b565b92505081905550816002600083815260200190815260200160002060006101000a81548173ffffffffffffffffffffffffffffffffffffffff021916908373ffffffffffffffffffffffffffffffffffffffff160217905550808273ffffffffffffffffffffffffffffffffffffffff16600073ffffffffffffffffffffffffffffffffffffffff167fddf252ad1be2c89b69c2b068fc378daa952ba7f163c4a11628f55a4df523b3ef60405160405180910390a4611d60600083836125a0565b5050565b611d6d82611a39565b611dac576040517f08c379a0000000000000000000000000000000000000000000000000000000008152600401611da390613785565b60405180910390fd5b80600a60008481526020019081526020016000209080519060200190611dd3929190612bcb565b505050565b6000611de382611a39565b611e22576040517f08c379a0000000000000000000000000000000000000000000000000000000008152600401611e1990613705565b60405180910390fd5b6000611e2d83611160565b90508073ffffffffffffffffffffffffffffffffffffffff168473ffffffffffffffffffffffffffffffffffffffff161480611e9c57508373ffffffffffffffffffffffffffffffffffffffff16611e84846106fe565b73ffffffffffffffffffffffffffffffffffffffff16145b80611ead5750611eac81856118c3565b5b91505092915050565b8273ffffffffffffffffffffffffffffffffffffffff16611ed682611160565b73ffffffffffffffffffffffffffffffffffffffff1614611f2c576040517f08c379a0000000000000000000000000000000000000000000000000000000008152600401611f2390613605565b60405180910390fd5b600073ffffffffffffffffffffffffffffffffffffffff168273ffffffffffffffffffffffffffffffffffffffff161415611f9c576040517f08c379a0000000000000000000000000000000000000000000000000000000008152600401611f9390613685565b60405180910390fd5b611fa783838361248c565b611fb2600082611aad565b6001600360008573ffffffffffffffffffffffffffffffffffffffff1673ffffffffffffffffffffffffffffffffffffffff16815260200190815260200160002060008282546120029190613b0c565b925050819055506001600360008473ffffffffffffffffffffffffffffffffffffffff1673ffffffffffffffffffffffffffffffffffffffff16815260200190815260200160002060008282546120599190613a2b565b92505081905550816002600083815260200190815260200160002060006101000a81548173ffffffffffffffffffffffffffffffffffffffff021916908373ffffffffffffffffffffffffffffffffffffffff160217905550808273ffffffffffffffffffffffffffffffffffffffff168473ffffffffffffffffffffffffffffffffffffffff167fddf252ad1be2c89b69c2b068fc378daa952ba7f163c4a11628f55a4df523b3ef60405160405180910390a46121188383836125a0565b505050565b600081612710808461212f9190613a81565b6121399190613ab2565b14612179576040517f08c379a000000000000000000000000000000000000000000000000000000000815260040161217090613665565b60405180910390fd5b612710600f548361218a9190613ab2565b6121949190613a81565b9050919050565b8173ffffffffffffffffffffffffffffffffffffffff168373ffffffffffffffffffffffffffffffffffffffff16141561220a576040517f08c379a0000000000000000000000000000000000000000000000000000000008152600401612201906136a5565b60405180910390fd5b80600560008573ffffffffffffffffffffffffffffffffffffffff1673ffffffffffffffffffffffffffffffffffffffff16815260200190815260200160002060008473ffffffffffffffffffffffffffffffffffffffff1673ffffffffffffffffffffffffffffffffffffffff16815260200190815260200160002060006101000a81548160ff0219169083151502179055508173ffffffffffffffffffffffffffffffffffffffff168373ffffffffffffffffffffffffffffffffffffffff167f17307eab39ab6107e8899845ad3d59bd9653f200f220920489ca2b5937696c31836040516122fb9190613568565b60405180910390a3505050565b612313848484611eb6565b61231f848484846125a5565b61235e576040517f08c379a0000000000000000000000000000000000000000000000000000000008152600401612355906135e5565b60405180910390fd5b50505050565b606060405180602001604052806000815250905090565b606061238682611a39565b6123c5576040517f08c379a00000000000000000000000000000000000000000000000000000000081526004016123bc90613825565b60405180910390fd5b60006123cf612364565b905060008151116123ef576040518060200160405280600081525061241a565b806123f98461273c565b60405160200161240a9291906134dd565b6040516020818303038152906040525b915050919050565b60007f01ffc9a7000000000000000000000000000000000000000000000000000000007bffffffffffffffffffffffffffffffffffffffffffffffffffffffff1916827bffffffffffffffffffffffffffffffffffffffffffffffffffffffff1916149050919050565b61249783838361289d565b600073ffffffffffffffffffffffffffffffffffffffff168373ffffffffffffffffffffffffffffffffffffffff1614156124da576124d5816128a2565b612519565b8173ffffffffffffffffffffffffffffffffffffffff168373ffffffffffffffffffffffffffffffffffffffff16146125185761251783826128eb565b5b5b600073ffffffffffffffffffffffffffffffffffffffff168273ffffffffffffffffffffffffffffffffffffffff16141561255c5761255781612a58565b61259b565b8273ffffffffffffffffffffffffffffffffffffffff168273ffffffffffffffffffffffffffffffffffffffff161461259a576125998282612b29565b5b5b505050565b505050565b60006125c68473ffffffffffffffffffffffffffffffffffffffff16612ba8565b1561272f578373ffffffffffffffffffffffffffffffffffffffff1663150b7a026125ef611aa5565b8786866040518563ffffffff1660e01b8152600401612611949392919061351c565b602060405180830381600087803b15801561262b57600080fd5b505af192505050801561265c57506040513d601f19601f820116820180604052508101906126599190612fa7565b60015b6126df573d806000811461268c576040519150601f19603f3d011682016040523d82523d6000602084013e612691565b606091505b506000815114156126d7576040517f08c379a00000000000000000000000000000000000000000000000000000000081526004016126ce906135e5565b60405180910390fd5b805181602001fd5b63150b7a0260e01b7bffffffffffffffffffffffffffffffffffffffffffffffffffffffff1916817bffffffffffffffffffffffffffffffffffffffffffffffffffffffff191614915050612734565b600190505b949350505050565b60606000821415612784576040518060400160405280600181526020017f30000000000000000000000000000000000000000000000000000000000000008152509050612898565b600082905060005b600082146127b657808061279f90613c6b565b915050600a826127af9190613a81565b915061278c565b60008167ffffffffffffffff8111156127d2576127d1613dd0565b5b6040519080825280601f01601f1916602001820160405280156128045781602001600182028036833780820191505090505b5090505b600085146128915760018261281d9190613b0c565b9150600a8561282c9190613cb4565b60306128389190613a2b565b60f81b81838151811061284e5761284d613da1565b5b60200101907effffffffffffffffffffffffffffffffffffffffffffffffffffffffffffff1916908160001a905350600a8561288a9190613a81565b9450612808565b8093505050505b919050565b505050565b6008805490506009600083815260200190815260200160002081905550600881908060018154018082558091505060019003906000526020600020016000909190919091505550565b600060016128f884611533565b6129029190613b0c565b90506000600760008481526020019081526020016000205490508181146129e7576000600660008673ffffffffffffffffffffffffffffffffffffffff1673ffffffffffffffffffffffffffffffffffffffff168152602001908152602001600020600084815260200190815260200160002054905080600660008773ffffffffffffffffffffffffffffffffffffffff1673ffffffffffffffffffffffffffffffffffffffff168152602001908152602001600020600084815260200190815260200160002081905550816007600083815260200190815260200160002081905550505b6007600084815260200190815260200160002060009055600660008573ffffffffffffffffffffffffffffffffffffffff1673ffffffffffffffffffffffffffffffffffffffff16815260200190815260200160002060008381526020019081526020016000206000905550505050565b60006001600880549050612a6c9190613b0c565b9050600060096000848152602001908152602001600020549050600060088381548110612a9c57612a9b613da1565b5b906000526020600020015490508060088381548110612abe57612abd613da1565b5b906000526020600020018190555081600960008381526020019081526020016000208190555060096000858152602001908152602001600020600090556008805480612b0d57612b0c613d72565b5b6001900381819060005260206000200160009055905550505050565b6000612b3483611533565b905081600660008573ffffffffffffffffffffffffffffffffffffffff1673ffffffffffffffffffffffffffffffffffffffff168152602001908152602001600020600083815260200190815260200160002081905550806007600084815260200190815260200160002081905550505050565b6000808273ffffffffffffffffffffffffffffffffffffffff163b119050919050565b828054612bd790613c08565b90600052602060002090601f016020900481019282612bf95760008555612c40565b82601f10612c1257805160ff1916838001178555612c40565b82800160010185558215612c40579182015b82811115612c3f578251825591602001919060010190612c24565b5b509050612c4d9190612c51565b5090565b5b80821115612c6a576000816000905550600101612c52565b5090565b6000612c81612c7c84613986565b613961565b905082815260208101848484011115612c9d57612c9c613e04565b5b612ca8848285613bc6565b509392505050565b6000612cc3612cbe846139b7565b613961565b905082815260208101848484011115612cdf57612cde613e04565b5b612cea848285613bc6565b509392505050565b600081359050612d0181614520565b92915050565b600081359050612d1681614537565b92915050565b600081359050612d2b8161454e565b92915050565b600081519050612d408161454e565b92915050565b600082601f830112612d5b57612d5a613dff565b5b8135612d6b848260208601612c6e565b91505092915050565b600082601f830112612d8957612d88613dff565b5b8135612d99848260208601612cb0565b91505092915050565b600081359050612db181614565565b92915050565b600060208284031215612dcd57612dcc613e0e565b5b6000612ddb84828501612cf2565b91505092915050565b60008060408385031215612dfb57612dfa613e0e565b5b6000612e0985828601612cf2565b9250506020612e1a85828601612cf2565b9150509250929050565b600080600060608486031215612e3d57612e3c613e0e565b5b6000612e4b86828701612cf2565b9350506020612e5c86828701612cf2565b9250506040612e6d86828701612da2565b9150509250925092565b60008060008060808587031215612e9157612e90613e0e565b5b6000612e9f87828801612cf2565b9450506020612eb087828801612cf2565b9350506040612ec187828801612da2565b925050606085013567ffffffffffffffff811115612ee257612ee1613e09565b5b612eee87828801612d46565b91505092959194509250565b60008060408385031215612f1157612f10613e0e565b5b6000612f1f85828601612cf2565b9250506020612f3085828601612d07565b9150509250929050565b60008060408385031215612f5157612f50613e0e565b5b6000612f5f85828601612cf2565b9250506020612f7085828601612da2565b9150509250929050565b600060208284031215612f9057612f8f613e0e565b5b6000612f9e84828501612d1c565b91505092915050565b600060208284031215612fbd57612fbc613e0e565b5b6000612fcb84828501612d31565b91505092915050565b600080600060608486031215612fed57612fec613e0e565b5b600084013567ffffffffffffffff81111561300b5761300a613e09565b5b61301786828701612d74565b935050602061302886828701612da2565b925050604061303986828701612da2565b9150509250925092565b60006020828403121561305957613058613e0e565b5b600061306784828501612da2565b91505092915050565b61307981613b52565b82525050565b61308881613b40565b82525050565b61309781613b64565b82525050565b60006130a8826139e8565b6130b281856139fe565b93506130c2818560208601613bd5565b6130cb81613e13565b840191505092915050565b60006130e1826139f3565b6130eb8185613a0f565b93506130fb818560208601613bd5565b61310481613e13565b840191505092915050565b600061311a826139f3565b6131248185613a20565b9350613134818560208601613bd5565b80840191505092915050565b600061314d604d83613a0f565b915061315882613e24565b606082019050919050565b6000613170602b83613a0f565b915061317b82613e99565b604082019050919050565b6000613193603283613a0f565b915061319e82613ee8565b604082019050919050565b60006131b6602583613a0f565b91506131c182613f37565b604082019050919050565b60006131d9601c83613a0f565b91506131e482613f86565b602082019050919050565b60006131fc602183613a0f565b915061320782613faf565b604082019050919050565b600061321f600983613a0f565b915061322a82613ffe565b602082019050919050565b6000613242602483613a0f565b915061324d82614027565b604082019050919050565b6000613265601983613a0f565b915061327082614076565b602082019050919050565b6000613288601583613a0f565b91506132938261409f565b602082019050919050565b60006132ab601283613a0f565b91506132b6826140c8565b602082019050919050565b60006132ce602c83613a0f565b91506132d9826140f1565b604082019050919050565b60006132f1603883613a0f565b91506132fc82614140565b604082019050919050565b6000613314602a83613a0f565b915061331f8261418f565b604082019050919050565b6000613337602983613a0f565b9150613342826141de565b604082019050919050565b600061335a602e83613a0f565b91506133658261422d565b604082019050919050565b600061337d602083613a0f565b91506133888261427c565b602082019050919050565b60006133a0603183613a0f565b91506133ab826142a5565b604082019050919050565b60006133c3602183613a0f565b91506133ce826142f4565b604082019050919050565b60006133e6602c83613a0f565b91506133f182614343565b604082019050919050565b6000613409602f83613a0f565b915061341482614392565b604082019050919050565b600061342c602183613a0f565b9150613437826143e1565b604082019050919050565b600061344f600c83613a0f565b915061345a82614430565b602082019050919050565b6000613472603183613a0f565b915061347d82614459565b604082019050919050565b6000613495601183613a0f565b91506134a0826144a8565b602082019050919050565b60006134b8602c83613a0f565b91506134c3826144d1565b604082019050919050565b6134d781613bbc565b82525050565b60006134e9828561310f565b91506134f5828461310f565b91508190509392505050565b6000602082019050613516600083018461307f565b92915050565b6000608082019050613531600083018761307f565b61353e602083018661307f565b61354b60408301856134ce565b818103606083015261355d818461309d565b905095945050505050565b600060208201905061357d600083018461308e565b92915050565b6000602082019050818103600083015261359d81846130d6565b905092915050565b600060208201905081810360008301526135be81613140565b9050919050565b600060208201905081810360008301526135de81613163565b9050919050565b600060208201905081810360008301526135fe81613186565b9050919050565b6000602082019050818103600083015261361e816131a9565b9050919050565b6000602082019050818103600083015261363e816131cc565b9050919050565b6000602082019050818103600083015261365e816131ef565b9050919050565b6000602082019050818103600083015261367e81613212565b9050919050565b6000602082019050818103600083015261369e81613235565b9050919050565b600060208201905081810360008301526136be81613258565b9050919050565b600060208201905081810360008301526136de8161327b565b9050919050565b600060208201905081810360008301526136fe8161329e565b9050919050565b6000602082019050818103600083015261371e816132c1565b9050919050565b6000602082019050818103600083015261373e816132e4565b9050919050565b6000602082019050818103600083015261375e81613307565b9050919050565b6000602082019050818103600083015261377e8161332a565b9050919050565b6000602082019050818103600083015261379e8161334d565b9050919050565b600060208201905081810360008301526137be81613370565b9050919050565b600060208201905081810360008301526137de81613393565b9050919050565b600060208201905081810360008301526137fe816133b6565b9050919050565b6000602082019050818103600083015261381e816133d9565b9050919050565b6000602082019050818103600083015261383e816133fc565b9050919050565b6000602082019050818103600083015261385e8161341f565b9050919050565b6000602082019050818103600083015261387e81613442565b9050919050565b6000602082019050818103600083015261389e81613465565b9050919050565b600060208201905081810360008301526138be81613488565b9050919050565b600060208201905081810360008301526138de816134ab565b9050919050565b60006020820190506138fa60008301846134ce565b92915050565b600060c08201905061391560008301896134ce565b61392260208301886134ce565b61392f6040830187613070565b61393c6060830186613070565b61394960808301856134ce565b61395660a08301846134ce565b979650505050505050565b600061396b61397c565b90506139778282613c3a565b919050565b6000604051905090565b600067ffffffffffffffff8211156139a1576139a0613dd0565b5b6139aa82613e13565b9050602081019050919050565b600067ffffffffffffffff8211156139d2576139d1613dd0565b5b6139db82613e13565b9050602081019050919050565b600081519050919050565b600081519050919050565b600082825260208201905092915050565b600082825260208201905092915050565b600081905092915050565b6000613a3682613bbc565b9150613a4183613bbc565b9250827fffffffffffffffffffffffffffffffffffffffffffffffffffffffffffffffff03821115613a7657613a75613ce5565b5b828201905092915050565b6000613a8c82613bbc565b9150613a9783613bbc565b925082613aa757613aa6613d14565b5b828204905092915050565b6000613abd82613bbc565b9150613ac883613bbc565b9250817fffffffffffffffffffffffffffffffffffffffffffffffffffffffffffffffff0483118215151615613b0157613b00613ce5565b5b828202905092915050565b6000613b1782613bbc565b9150613b2283613bbc565b925082821015613b3557613b34613ce5565b5b828203905092915050565b6000613b4b82613b9c565b9050919050565b6000613b5d82613b9c565b9050919050565b60008115159050919050565b60007fffffffff0000000000000000000000000000000000000000000000000000000082169050919050565b600073ffffffffffffffffffffffffffffffffffffffff82169050919050565b6000819050919050565b82818337600083830152505050565b60005b83811015613bf3578082015181840152602081019050613bd8565b83811115613c02576000848401525b50505050565b60006002820490506001821680613c2057607f821691505b60208210811415613c3457613c33613d43565b5b50919050565b613c4382613e13565b810181811067ffffffffffffffff82111715613c6257613c61613dd0565b5b80604052505050565b6000613c7682613bbc565b91507fffffffffffffffffffffffffffffffffffffffffffffffffffffffffffffffff821415613ca957613ca8613ce5565b5b600182019050919050565b6000613cbf82613bbc565b9150613cca83613bbc565b925082613cda57613cd9613d14565b5b828206905092915050565b7f4e487b7100000000000000000000000000000000000000000000000000000000600052601160045260246000fd5b7f4e487b7100000000000000000000000000000000000000000000000000000000600052601260045260246000fd5b7f4e487b7100000000000000000000000000000000000000000000000000000000600052602260045260246000fd5b7f4e487b7100000000000000000000000000000000000000000000000000000000600052603160045260246000fd5b7f4e487b7100000000000000000000000000000000000000000000000000000000600052603260045260246000fd5b7f4e487b7100000000000000000000000000000000000000000000000000000000600052604160045260246000fd5b600080fd5b600080fd5b600080fd5b600080fd5b6000601f19601f8301169050919050565b7f596f7520617265206e6f7420616c6c6f77656420746f206d696e74206120636160008201527f72642c206265636175736520796f7520617265206e6f7420616e2061646d696e60208201527f206f7220746865206f776e657200000000000000000000000000000000000000604082015250565b7f455243373231456e756d657261626c653a206f776e657220696e646578206f7560008201527f74206f6620626f756e6473000000000000000000000000000000000000000000602082015250565b7f4552433732313a207472616e7366657220746f206e6f6e20455243373231526560008201527f63656976657220696d706c656d656e7465720000000000000000000000000000602082015250565b7f4552433732313a207472616e736665722066726f6d20696e636f72726563742060008201527f6f776e6572000000000000000000000000000000000000000000000000000000602082015250565b7f4552433732313a20746f6b656e20616c7265616479206d696e74656400000000600082015250565b7f546865206d61726b657420646f6573206e6f74206f776e20746869732063617260008201527f6400000000000000000000000000000000000000000000000000000000000000602082015250565b7f746f6f20736d616c6c0000000000000000000000000000000000000000000000600082015250565b7f4552433732313a207472616e7366657220746f20746865207a65726f2061646460008201527f7265737300000000000000000000000000000000000000000000000000000000602082015250565b7f4552433732313a20617070726f766520746f2063616c6c657200000000000000600082015250565b7f596f7520617265206e6f7420746865206f776e65720000000000000000000000600082015250565b7f596f75206f776e20746869732063617264210000000000000000000000000000600082015250565b7f4552433732313a206f70657261746f7220717565727920666f72206e6f6e657860008201527f697374656e7420746f6b656e0000000000000000000000000000000000000000602082015250565b7f4552433732313a20617070726f76652063616c6c6572206973206e6f74206f7760008201527f6e6572206e6f7220617070726f76656420666f7220616c6c0000000000000000602082015250565b7f4552433732313a2062616c616e636520717565727920666f7220746865207a6560008201527f726f206164647265737300000000000000000000000000000000000000000000602082015250565b7f4552433732313a206f776e657220717565727920666f72206e6f6e657869737460008201527f656e7420746f6b656e0000000000000000000000000000000000000000000000602082015250565b7f45524337323155524953746f726167653a2055524920736574206f66206e6f6e60008201527f6578697374656e7420746f6b656e000000000000000000000000000000000000602082015250565b7f4552433732313a206d696e7420746f20746865207a65726f2061646472657373600082015250565b7f45524337323155524953746f726167653a2055524920717565727920666f722060008201527f6e6f6e6578697374656e7420746f6b656e000000000000000000000000000000602082015250565b7f54686973206164647265737320697320616e2061646d696e20616c726561647960008201527f2100000000000000000000000000000000000000000000000000000000000000602082015250565b7f4552433732313a20617070726f76656420717565727920666f72206e6f6e657860008201527f697374656e7420746f6b656e0000000000000000000000000000000000000000602082015250565b7f4552433732314d657461646174613a2055524920717565727920666f72206e6f60008201527f6e6578697374656e7420746f6b656e0000000000000000000000000000000000602082015250565b7f4552433732313a20617070726f76616c20746f2063757272656e74206f776e6560008201527f7200000000000000000000000000000000000000000000000000000000000000602082015250565b7f57726f6e67207072696365210000000000000000000000000000000000000000600082015250565b7f4552433732313a207472616e736665722063616c6c6572206973206e6f74206f60008201527f776e6572206e6f7220617070726f766564000000000000000000000000000000602082015250565b7f594f5520415245204e4f542041444d494e000000000000000000000000000000600082015250565b7f455243373231456e756d657261626c653a20676c6f62616c20696e646578206f60008201527f7574206f6620626f756e64730000000000000000000000000000000000000000602082015250565b61452981613b40565b811461453457600080fd5b50565b61454081613b64565b811461454b57600080fd5b50565b61455781613b70565b811461456257600080fd5b50565b61456e81613bbc565b811461457957600080fd5b5056fea26469706673582212207aca7a8c147734b04460331c9360957cbd8361fdf862962a2405bc4126b69eb564736f6c63430008070033",
  "linkReferences": {},
  "deployedLinkReferences": {}
}