{
  "_format": "hh-sol-artifact-1",
  "contractName": "Soccer",
  "sourceName": "contracts/Soccer.sol",
  "abi": [
    {
      "inputs": [],
      "stateMutability": "nonpayable",
      "type": "constructor"
    },
    {
      "anonymous": false,
      "inputs": [
        {
          "indexed": true,
          "internalType": "address",
          "name": "owner",
          "type": "address"
        },
        {
          "indexed": true,
          "internalType": "address",
          "name": "approved",
          "type": "address"
        },
        {
          "indexed": true,
          "internalType": "uint256",
          "name": "tokenId",
          "type": "uint256"
        }
      ],
      "name": "Approval",
      "type": "event"
    },
    {
      "anonymous": false,
      "inputs": [
        {
          "indexed": true,
          "internalType": "address",
          "name": "owner",
          "type": "address"
        },
        {
          "indexed": true,
          "internalType": "address",
          "name": "operator",
          "type": "address"
        },
        {
          "indexed": false,
          "internalType": "bool",
          "name": "approved",
          "type": "bool"
        }
      ],
      "name": "ApprovalForAll",
      "type": "event"
    },
    {
      "anonymous": false,
      "inputs": [
        {
          "indexed": true,
          "internalType": "address",
          "name": "from",
          "type": "address"
        },
        {
          "indexed": true,
          "internalType": "address",
          "name": "to",
          "type": "address"
        },
        {
          "indexed": true,
          "internalType": "uint256",
          "name": "tokenId",
          "type": "uint256"
        }
      ],
      "name": "Transfer",
      "type": "event"
    },
    {
      "inputs": [
        {
          "internalType": "address",
          "name": "addr",
          "type": "address"
        }
      ],
      "name": "addCreator",
      "outputs": [],
      "stateMutability": "nonpayable",
      "type": "function"
    },
    {
      "inputs": [
        {
          "internalType": "address",
          "name": "",
          "type": "address"
        }
      ],
      "name": "admins",
      "outputs": [
        {
          "internalType": "bool",
          "name": "",
          "type": "bool"
        }
      ],
      "stateMutability": "view",
      "type": "function"
    },
    {
      "inputs": [
        {
          "internalType": "address",
          "name": "to",
          "type": "address"
        },
        {
          "internalType": "uint256",
          "name": "tokenId",
          "type": "uint256"
        }
      ],
      "name": "approve",
      "outputs": [],
      "stateMutability": "nonpayable",
      "type": "function"
    },
    {
      "inputs": [
        {
          "internalType": "address",
          "name": "owner",
          "type": "address"
        }
      ],
      "name": "balanceOf",
      "outputs": [
        {
          "internalType": "uint256",
          "name": "",
          "type": "uint256"
        }
      ],
      "stateMutability": "view",
      "type": "function"
    },
    {
      "inputs": [
        {
          "internalType": "uint256",
          "name": "id",
          "type": "uint256"
        }
      ],
      "name": "buyCardFromMarket",
      "outputs": [],
      "stateMutability": "payable",
      "type": "function"
    },
    {
      "inputs": [
        {
          "internalType": "uint256",
          "name": "",
          "type": "uint256"
        }
      ],
      "name": "cardCreator",
      "outputs": [
        {
          "internalType": "address",
          "name": "",
          "type": "address"
        }
      ],
      "stateMutability": "view",
      "type": "function"
    },
    {
      "inputs": [
        {
          "internalType": "uint256",
          "name": "",
          "type": "uint256"
        }
      ],
      "name": "cards",
      "outputs": [
        {
          "internalType": "uint256",
          "name": "id",
          "type": "uint256"
        },
        {
          "internalType": "uint256",
          "name": "createdAt",
          "type": "uint256"
        },
        {
          "internalType": "address",
          "name": "owner",
          "type": "address"
        },
        {
          "internalType": "address",
          "name": "creator",
          "type": "address"
        },
        {
          "internalType": "uint256",
          "name": "totalAmount",
          "type": "uint256"
        }
      ],
      "stateMutability": "view",
      "type": "function"
    },
    {
      "inputs": [
        {
          "internalType": "uint256",
          "name": "tokenId",
          "type": "uint256"
        }
      ],
      "name": "getApproved",
      "outputs": [
        {
          "internalType": "address",
          "name": "",
          "type": "address"
        }
      ],
      "stateMutability": "view",
      "type": "function"
    },
    {
      "inputs": [
        {
          "internalType": "address",
          "name": "owner",
          "type": "address"
        },
        {
          "internalType": "address",
          "name": "operator",
          "type": "address"
        }
      ],
      "name": "isApprovedForAll",
      "outputs": [
        {
          "internalType": "bool",
          "name": "",
          "type": "bool"
        }
      ],
      "stateMutability": "view",
      "type": "function"
    },
    {
      "inputs": [
        {
          "internalType": "string",
          "name": "tokenURI",
          "type": "string"
        },
        {
          "internalType": "uint256",
          "name": "amount",
          "type": "uint256"
        }
      ],
      "name": "mint",
      "outputs": [],
      "stateMutability": "nonpayable",
      "type": "function"
    },
    {
      "inputs": [],
      "name": "name",
      "outputs": [
        {
          "internalType": "string",
          "name": "",
          "type": "string"
        }
      ],
      "stateMutability": "view",
      "type": "function"
    },
    {
      "inputs": [
        {
          "internalType": "uint256",
          "name": "tokenId",
          "type": "uint256"
        }
      ],
      "name": "ownerOf",
      "outputs": [
        {
          "internalType": "address",
          "name": "",
          "type": "address"
        }
      ],
      "stateMutability": "view",
      "type": "function"
    },
    {
      "inputs": [
        {
          "internalType": "address",
          "name": "from",
          "type": "address"
        },
        {
          "internalType": "address",
          "name": "to",
          "type": "address"
        },
        {
          "internalType": "uint256",
          "name": "tokenId",
          "type": "uint256"
        }
      ],
      "name": "safeTransferFrom",
      "outputs": [],
      "stateMutability": "nonpayable",
      "type": "function"
    },
    {
      "inputs": [
        {
          "internalType": "address",
          "name": "from",
          "type": "address"
        },
        {
          "internalType": "address",
          "name": "to",
          "type": "address"
        },
        {
          "internalType": "uint256",
          "name": "tokenId",
          "type": "uint256"
        },
        {
          "internalType": "bytes",
          "name": "_data",
          "type": "bytes"
        }
      ],
      "name": "safeTransferFrom",
      "outputs": [],
      "stateMutability": "nonpayable",
      "type": "function"
    },
    {
      "inputs": [
        {
          "internalType": "address",
          "name": "operator",
          "type": "address"
        },
        {
          "internalType": "bool",
          "name": "approved",
          "type": "bool"
        }
      ],
      "name": "setApprovalForAll",
      "outputs": [],
      "stateMutability": "nonpayable",
      "type": "function"
    },
    {
      "inputs": [
        {
          "internalType": "bytes4",
          "name": "interfaceId",
          "type": "bytes4"
        }
      ],
      "name": "supportsInterface",
      "outputs": [
        {
          "internalType": "bool",
          "name": "",
          "type": "bool"
        }
      ],
      "stateMutability": "view",
      "type": "function"
    },
    {
      "inputs": [],
      "name": "symbol",
      "outputs": [
        {
          "internalType": "string",
          "name": "",
          "type": "string"
        }
      ],
      "stateMutability": "view",
      "type": "function"
    },
    {
      "inputs": [
        {
          "internalType": "uint256",
          "name": "index",
          "type": "uint256"
        }
      ],
      "name": "tokenByIndex",
      "outputs": [
        {
          "internalType": "uint256",
          "name": "",
          "type": "uint256"
        }
      ],
      "stateMutability": "view",
      "type": "function"
    },
    {
      "inputs": [
        {
          "internalType": "address",
          "name": "owner",
          "type": "address"
        },
        {
          "internalType": "uint256",
          "name": "index",
          "type": "uint256"
        }
      ],
      "name": "tokenOfOwnerByIndex",
      "outputs": [
        {
          "internalType": "uint256",
          "name": "",
          "type": "uint256"
        }
      ],
      "stateMutability": "view",
      "type": "function"
    },
    {
      "inputs": [
        {
          "internalType": "uint256",
          "name": "tokenId",
          "type": "uint256"
        }
      ],
      "name": "tokenURI",
      "outputs": [
        {
          "internalType": "string",
          "name": "",
          "type": "string"
        }
      ],
      "stateMutability": "view",
      "type": "function"
    },
    {
      "inputs": [],
      "name": "totalSupply",
      "outputs": [
        {
          "internalType": "uint256",
          "name": "",
          "type": "uint256"
        }
      ],
      "stateMutability": "view",
      "type": "function"
    },
    {
      "inputs": [
        {
          "internalType": "address",
          "name": "from",
          "type": "address"
        },
        {
          "internalType": "address",
          "name": "to",
          "type": "address"
        },
        {
          "internalType": "uint256",
          "name": "tokenId",
          "type": "uint256"
        }
      ],
      "name": "transferFrom",
      "outputs": [],
      "stateMutability": "nonpayable",
      "type": "function"
    }
  ],
  "bytecode": "0x60a06040526064600f553480156200001657600080fd5b506040518060400160405280600c81526020017f536f6363657220436172647300000000000000000000000000000000000000008152506040518060400160405280600481526020017f534f4b520000000000000000000000000000000000000000000000000000000081525081600090805190602001906200009b929190620000f4565b508060019080519060200190620000b4929190620000f4565b5050503373ffffffffffffffffffffffffffffffffffffffff1660808173ffffffffffffffffffffffffffffffffffffffff1660601b8152505062000209565b8280546200010290620001a4565b90600052602060002090601f01602090048101928262000126576000855562000172565b82601f106200014157805160ff191683800117855562000172565b8280016001018555821562000172579182015b828111156200017157825182559160200191906001019062000154565b5b50905062000181919062000185565b5090565b5b80821115620001a057600081600090555060010162000186565b5090565b60006002820490506001821680620001bd57607f821691505b60208210811415620001d457620001d3620001da565b5b50919050565b7f4e487b7100000000000000000000000000000000000000000000000000000000600052602260045260246000fd5b60805160601c613c1f6200022f6000396000818161062c0152610c0c0152613c1f6000f3fe6080604052600436106101355760003560e01c8063475749b2116100ab5780638dc107681161006f5780638dc107681461046157806395d89b41146104a2578063a22cb465146104cd578063b88d4fde146104f6578063c87b56dd1461051f578063e985e9c51461055c57610135565b8063475749b2146103515780634f6ccce71461038e5780636352211e146103cb5780636ac408e51461040857806370a082311461042457610135565b806318160ddd116100fd57806318160ddd1461023157806323b872dd1461025c5780632f745c59146102855780633b9dce05146102c257806342842e0e146102eb578063429b62e51461031457610135565b806301ffc9a71461013a578063056b01ce1461017757806306fdde03146101a0578063081812fc146101cb578063095ea7b314610208575b600080fd5b34801561014657600080fd5b50610161600480360381019061015c91906128c5565b610599565b60405161016e9190612de2565b60405180910390f35b34801561018357600080fd5b5061019e6004803603810190610199919061291f565b610613565b005b3480156101ac57600080fd5b506101b56108b2565b6040516101c29190612dfd565b60405180910390f35b3480156101d757600080fd5b506101f260048036038101906101ed919061297b565b610944565b6040516101ff9190612d7b565b60405180910390f35b34801561021457600080fd5b5061022f600480360381019061022a9190612885565b6109c9565b005b34801561023d57600080fd5b50610246610ae1565b60405161025391906130bf565b60405180910390f35b34801561026857600080fd5b50610283600480360381019061027e919061276f565b610aee565b005b34801561029157600080fd5b506102ac60048036038101906102a79190612885565b610b4e565b6040516102b991906130bf565b60405180910390f35b3480156102ce57600080fd5b506102e960048036038101906102e49190612702565b610bf3565b005b3480156102f757600080fd5b50610312600480360381019061030d919061276f565b610d69565b005b34801561032057600080fd5b5061033b60048036038101906103369190612702565b610d89565b6040516103489190612de2565b60405180910390f35b34801561035d57600080fd5b506103786004803603810190610373919061297b565b610da9565b6040516103859190612d7b565b60405180910390f35b34801561039a57600080fd5b506103b560048036038101906103b0919061297b565b610ddc565b6040516103c291906130bf565b60405180910390f35b3480156103d757600080fd5b506103f260048036038101906103ed919061297b565b610e4d565b6040516103ff9190612d7b565b60405180910390f35b610422600480360381019061041d919061297b565b610eff565b005b34801561043057600080fd5b5061044b60048036038101906104469190612702565b610f02565b60405161045891906130bf565b60405180910390f35b34801561046d57600080fd5b506104886004803603810190610483919061297b565b610fba565b6040516104999594939291906130da565b60405180910390f35b3480156104ae57600080fd5b506104b7611030565b6040516104c49190612dfd565b60405180910390f35b3480156104d957600080fd5b506104f460048036038101906104ef9190612845565b6110c2565b005b34801561050257600080fd5b5061051d600480360381019061051891906127c2565b6110d8565b005b34801561052b57600080fd5b506105466004803603810190610541919061297b565b61113a565b6040516105539190612dfd565b60405180910390f35b34801561056857600080fd5b50610583600480360381019061057e919061272f565b61128c565b6040516105909190612de2565b60405180910390f35b60007f780e9d63000000000000000000000000000000000000000000000000000000007bffffffffffffffffffffffffffffffffffffffffffffffffffffffff1916827bffffffffffffffffffffffffffffffffffffffffffffffffffffffff1916148061060c575061060b82611320565b5b9050919050565b3373ffffffffffffffffffffffffffffffffffffffff167f000000000000000000000000000000000000000000000000000000000000000073ffffffffffffffffffffffffffffffffffffffff1614806106b65750600e60003373ffffffffffffffffffffffffffffffffffffffff1673ffffffffffffffffffffffffffffffffffffffff16815260200190815260200160002060009054906101000a900460ff165b6106f5576040517f08c379a00000000000000000000000000000000000000000000000000000000081526004016106ec90612e1f565b60405180910390fd5b60005b818110156108ad5761070a600b611402565b6000610716600b611418565b90506107223082611426565b61072c8185611600565b33600c600083815260200190815260200160002060006101000a81548173ffffffffffffffffffffffffffffffffffffffff021916908373ffffffffffffffffffffffffffffffffffffffff16021790555060006040518060a001604052808381526020014281526020013073ffffffffffffffffffffffffffffffffffffffff1681526020013373ffffffffffffffffffffffffffffffffffffffff16815260200185815250905080600d6000848152602001908152602001600020600082015181600001556020820151816001015560408201518160020160006101000a81548173ffffffffffffffffffffffffffffffffffffffff021916908373ffffffffffffffffffffffffffffffffffffffff16021790555060608201518160030160006101000a81548173ffffffffffffffffffffffffffffffffffffffff021916908373ffffffffffffffffffffffffffffffffffffffff16021790555060808201518160040155905050505080806108a5906133cb565b9150506106f8565b505050565b6060600080546108c190613368565b80601f01602080910402602001604051908101604052809291908181526020018280546108ed90613368565b801561093a5780601f1061090f5761010080835404028352916020019161093a565b820191906000526020600020905b81548152906001019060200180831161091d57829003601f168201915b5050505050905090565b600061094f82611674565b61098e576040517f08c379a000000000000000000000000000000000000000000000000000000000815260040161098590612fff565b60405180910390fd5b6004600083815260200190815260200160002060009054906101000a900473ffffffffffffffffffffffffffffffffffffffff169050919050565b60006109d482610e4d565b90508073ffffffffffffffffffffffffffffffffffffffff168373ffffffffffffffffffffffffffffffffffffffff161415610a45576040517f08c379a0000000000000000000000000000000000000000000000000000000008152600401610a3c9061303f565b60405180910390fd5b8073ffffffffffffffffffffffffffffffffffffffff16610a646116e0565b73ffffffffffffffffffffffffffffffffffffffff161480610a935750610a9281610a8d6116e0565b61128c565b5b610ad2576040517f08c379a0000000000000000000000000000000000000000000000000000000008152600401610ac990612f1f565b60405180910390fd5b610adc83836116e8565b505050565b6000600880549050905090565b610aff610af96116e0565b826117a1565b610b3e576040517f08c379a0000000000000000000000000000000000000000000000000000000008152600401610b359061305f565b60405180910390fd5b610b4983838361187f565b505050565b6000610b5983610f02565b8210610b9a576040517f08c379a0000000000000000000000000000000000000000000000000000000008152600401610b9190612e3f565b60405180910390fd5b600660008473ffffffffffffffffffffffffffffffffffffffff1673ffffffffffffffffffffffffffffffffffffffff168152602001908152602001600020600083815260200190815260200160002054905092915050565b3373ffffffffffffffffffffffffffffffffffffffff167f000000000000000000000000000000000000000000000000000000000000000073ffffffffffffffffffffffffffffffffffffffff1614610c81576040517f08c379a0000000000000000000000000000000000000000000000000000000008152600401610c789061307f565b60405180910390fd5b600e60008273ffffffffffffffffffffffffffffffffffffffff1673ffffffffffffffffffffffffffffffffffffffff16815260200190815260200160002060009054906101000a900460ff1615610d0e576040517f08c379a0000000000000000000000000000000000000000000000000000000008152600401610d0590612fdf565b60405180910390fd5b6001600e60008373ffffffffffffffffffffffffffffffffffffffff1673ffffffffffffffffffffffffffffffffffffffff16815260200190815260200160002060006101000a81548160ff02191690831515021790555050565b610d84838383604051806020016040528060008152506110d8565b505050565b600e6020528060005260406000206000915054906101000a900460ff1681565b600c6020528060005260406000206000915054906101000a900473ffffffffffffffffffffffffffffffffffffffff1681565b6000610de6610ae1565b8210610e27576040517f08c379a0000000000000000000000000000000000000000000000000000000008152600401610e1e9061309f565b60405180910390fd5b60088281548110610e3b57610e3a613501565b5b90600052602060002001549050919050565b6000806002600084815260200190815260200160002060009054906101000a900473ffffffffffffffffffffffffffffffffffffffff169050600073ffffffffffffffffffffffffffffffffffffffff168173ffffffffffffffffffffffffffffffffffffffff161415610ef6576040517f08c379a0000000000000000000000000000000000000000000000000000000008152600401610eed90612f5f565b60405180910390fd5b80915050919050565b50565b60008073ffffffffffffffffffffffffffffffffffffffff168273ffffffffffffffffffffffffffffffffffffffff161415610f73576040517f08c379a0000000000000000000000000000000000000000000000000000000008152600401610f6a90612f3f565b60405180910390fd5b600360008373ffffffffffffffffffffffffffffffffffffffff1673ffffffffffffffffffffffffffffffffffffffff168152602001908152602001600020549050919050565b600d6020528060005260406000206000915090508060000154908060010154908060020160009054906101000a900473ffffffffffffffffffffffffffffffffffffffff16908060030160009054906101000a900473ffffffffffffffffffffffffffffffffffffffff16908060040154905085565b60606001805461103f90613368565b80601f016020809104026020016040519081016040528092919081815260200182805461106b90613368565b80156110b85780601f1061108d576101008083540402835291602001916110b8565b820191906000526020600020905b81548152906001019060200180831161109b57829003601f168201915b5050505050905090565b6110d46110cd6116e0565b8383611ae6565b5050565b6110e96110e36116e0565b836117a1565b611128576040517f08c379a000000000000000000000000000000000000000000000000000000000815260040161111f9061305f565b60405180910390fd5b61113484848484611c53565b50505050565b606061114582611674565b611184576040517f08c379a000000000000000000000000000000000000000000000000000000000815260040161117b90612fbf565b60405180910390fd5b6000600a600084815260200190815260200160002080546111a490613368565b80601f01602080910402602001604051908101604052809291908181526020018280546111d090613368565b801561121d5780601f106111f25761010080835404028352916020019161121d565b820191906000526020600020905b81548152906001019060200180831161120057829003601f168201915b50505050509050600061122e611caf565b9050600081511415611244578192505050611287565b600082511115611279578082604051602001611261929190612d57565b60405160208183030381529060405292505050611287565b61128284611cc6565b925050505b919050565b6000600560008473ffffffffffffffffffffffffffffffffffffffff1673ffffffffffffffffffffffffffffffffffffffff16815260200190815260200160002060008373ffffffffffffffffffffffffffffffffffffffff1673ffffffffffffffffffffffffffffffffffffffff16815260200190815260200160002060009054906101000a900460ff16905092915050565b60007f80ac58cd000000000000000000000000000000000000000000000000000000007bffffffffffffffffffffffffffffffffffffffffffffffffffffffff1916827bffffffffffffffffffffffffffffffffffffffffffffffffffffffff191614806113eb57507f5b5e139f000000000000000000000000000000000000000000000000000000007bffffffffffffffffffffffffffffffffffffffffffffffffffffffff1916827bffffffffffffffffffffffffffffffffffffffffffffffffffffffff1916145b806113fb57506113fa82611d6d565b5b9050919050565b6001816000016000828254019250508190555050565b600081600001549050919050565b600073ffffffffffffffffffffffffffffffffffffffff168273ffffffffffffffffffffffffffffffffffffffff161415611496576040517f08c379a000000000000000000000000000000000000000000000000000000000815260040161148d90612f9f565b60405180910390fd5b61149f81611674565b156114df576040517f08c379a00000000000000000000000000000000000000000000000000000000081526004016114d690612e9f565b60405180910390fd5b6114eb60008383611dd7565b6001600360008473ffffffffffffffffffffffffffffffffffffffff1673ffffffffffffffffffffffffffffffffffffffff168152602001908152602001600020600082825461153b91906131f7565b92505081905550816002600083815260200190815260200160002060006101000a81548173ffffffffffffffffffffffffffffffffffffffff021916908373ffffffffffffffffffffffffffffffffffffffff160217905550808273ffffffffffffffffffffffffffffffffffffffff16600073ffffffffffffffffffffffffffffffffffffffff167fddf252ad1be2c89b69c2b068fc378daa952ba7f163c4a11628f55a4df523b3ef60405160405180910390a46115fc60008383611eeb565b5050565b61160982611674565b611648576040517f08c379a000000000000000000000000000000000000000000000000000000000815260040161163f90612f7f565b60405180910390fd5b80600a6000848152602001908152602001600020908051906020019061166f929190612516565b505050565b60008073ffffffffffffffffffffffffffffffffffffffff166002600084815260200190815260200160002060009054906101000a900473ffffffffffffffffffffffffffffffffffffffff1673ffffffffffffffffffffffffffffffffffffffff1614159050919050565b600033905090565b816004600083815260200190815260200160002060006101000a81548173ffffffffffffffffffffffffffffffffffffffff021916908373ffffffffffffffffffffffffffffffffffffffff160217905550808273ffffffffffffffffffffffffffffffffffffffff1661175b83610e4d565b73ffffffffffffffffffffffffffffffffffffffff167f8c5be1e5ebec7d5bd14f71427d1e84f3dd0314c0f7b2291e5b200ac8c7c3b92560405160405180910390a45050565b60006117ac82611674565b6117eb576040517f08c379a00000000000000000000000000000000000000000000000000000000081526004016117e290612eff565b60405180910390fd5b60006117f683610e4d565b90508073ffffffffffffffffffffffffffffffffffffffff168473ffffffffffffffffffffffffffffffffffffffff16148061186557508373ffffffffffffffffffffffffffffffffffffffff1661184d84610944565b73ffffffffffffffffffffffffffffffffffffffff16145b806118765750611875818561128c565b5b91505092915050565b8273ffffffffffffffffffffffffffffffffffffffff1661189f82610e4d565b73ffffffffffffffffffffffffffffffffffffffff16146118f5576040517f08c379a00000000000000000000000000000000000000000000000000000000081526004016118ec90612e7f565b60405180910390fd5b600073ffffffffffffffffffffffffffffffffffffffff168273ffffffffffffffffffffffffffffffffffffffff161415611965576040517f08c379a000000000000000000000000000000000000000000000000000000000815260040161195c90612ebf565b60405180910390fd5b611970838383611dd7565b61197b6000826116e8565b6001600360008573ffffffffffffffffffffffffffffffffffffffff1673ffffffffffffffffffffffffffffffffffffffff16815260200190815260200160002060008282546119cb919061327e565b925050819055506001600360008473ffffffffffffffffffffffffffffffffffffffff1673ffffffffffffffffffffffffffffffffffffffff1681526020019081526020016000206000828254611a2291906131f7565b92505081905550816002600083815260200190815260200160002060006101000a81548173ffffffffffffffffffffffffffffffffffffffff021916908373ffffffffffffffffffffffffffffffffffffffff160217905550808273ffffffffffffffffffffffffffffffffffffffff168473ffffffffffffffffffffffffffffffffffffffff167fddf252ad1be2c89b69c2b068fc378daa952ba7f163c4a11628f55a4df523b3ef60405160405180910390a4611ae1838383611eeb565b505050565b8173ffffffffffffffffffffffffffffffffffffffff168373ffffffffffffffffffffffffffffffffffffffff161415611b55576040517f08c379a0000000000000000000000000000000000000000000000000000000008152600401611b4c90612edf565b60405180910390fd5b80600560008573ffffffffffffffffffffffffffffffffffffffff1673ffffffffffffffffffffffffffffffffffffffff16815260200190815260200160002060008473ffffffffffffffffffffffffffffffffffffffff1673ffffffffffffffffffffffffffffffffffffffff16815260200190815260200160002060006101000a81548160ff0219169083151502179055508173ffffffffffffffffffffffffffffffffffffffff168373ffffffffffffffffffffffffffffffffffffffff167f17307eab39ab6107e8899845ad3d59bd9653f200f220920489ca2b5937696c3183604051611c469190612de2565b60405180910390a3505050565b611c5e84848461187f565b611c6a84848484611ef0565b611ca9576040517f08c379a0000000000000000000000000000000000000000000000000000000008152600401611ca090612e5f565b60405180910390fd5b50505050565b606060405180602001604052806000815250905090565b6060611cd182611674565b611d10576040517f08c379a0000000000000000000000000000000000000000000000000000000008152600401611d079061301f565b60405180910390fd5b6000611d1a611caf565b90506000815111611d3a5760405180602001604052806000815250611d65565b80611d4484612087565b604051602001611d55929190612d57565b6040516020818303038152906040525b915050919050565b60007f01ffc9a7000000000000000000000000000000000000000000000000000000007bffffffffffffffffffffffffffffffffffffffffffffffffffffffff1916827bffffffffffffffffffffffffffffffffffffffffffffffffffffffff1916149050919050565b611de28383836121e8565b600073ffffffffffffffffffffffffffffffffffffffff168373ffffffffffffffffffffffffffffffffffffffff161415611e2557611e20816121ed565b611e64565b8173ffffffffffffffffffffffffffffffffffffffff168373ffffffffffffffffffffffffffffffffffffffff1614611e6357611e628382612236565b5b5b600073ffffffffffffffffffffffffffffffffffffffff168273ffffffffffffffffffffffffffffffffffffffff161415611ea757611ea2816123a3565b611ee6565b8273ffffffffffffffffffffffffffffffffffffffff168273ffffffffffffffffffffffffffffffffffffffff1614611ee557611ee48282612474565b5b5b505050565b505050565b6000611f118473ffffffffffffffffffffffffffffffffffffffff166124f3565b1561207a578373ffffffffffffffffffffffffffffffffffffffff1663150b7a02611f3a6116e0565b8786866040518563ffffffff1660e01b8152600401611f5c9493929190612d96565b602060405180830381600087803b158015611f7657600080fd5b505af1925050508015611fa757506040513d601f19601f82011682018060405250810190611fa491906128f2565b60015b61202a573d8060008114611fd7576040519150601f19603f3d011682016040523d82523d6000602084013e611fdc565b606091505b50600081511415612022576040517f08c379a000000000000000000000000000000000000000000000000000000000815260040161201990612e5f565b60405180910390fd5b805181602001fd5b63150b7a0260e01b7bffffffffffffffffffffffffffffffffffffffffffffffffffffffff1916817bffffffffffffffffffffffffffffffffffffffffffffffffffffffff19161491505061207f565b600190505b949350505050565b606060008214156120cf576040518060400160405280600181526020017f300000000000000000000000000000000000000000000000000000000000000081525090506121e3565b600082905060005b600082146121015780806120ea906133cb565b915050600a826120fa919061324d565b91506120d7565b60008167ffffffffffffffff81111561211d5761211c613530565b5b6040519080825280601f01601f19166020018201604052801561214f5781602001600182028036833780820191505090505b5090505b600085146121dc57600182612168919061327e565b9150600a856121779190613414565b603061218391906131f7565b60f81b81838151811061219957612198613501565b5b60200101907effffffffffffffffffffffffffffffffffffffffffffffffffffffffffffff1916908160001a905350600a856121d5919061324d565b9450612153565b8093505050505b919050565b505050565b6008805490506009600083815260200190815260200160002081905550600881908060018154018082558091505060019003906000526020600020016000909190919091505550565b6000600161224384610f02565b61224d919061327e565b9050600060076000848152602001908152602001600020549050818114612332576000600660008673ffffffffffffffffffffffffffffffffffffffff1673ffffffffffffffffffffffffffffffffffffffff168152602001908152602001600020600084815260200190815260200160002054905080600660008773ffffffffffffffffffffffffffffffffffffffff1673ffffffffffffffffffffffffffffffffffffffff168152602001908152602001600020600084815260200190815260200160002081905550816007600083815260200190815260200160002081905550505b6007600084815260200190815260200160002060009055600660008573ffffffffffffffffffffffffffffffffffffffff1673ffffffffffffffffffffffffffffffffffffffff16815260200190815260200160002060008381526020019081526020016000206000905550505050565b600060016008805490506123b7919061327e565b90506000600960008481526020019081526020016000205490506000600883815481106123e7576123e6613501565b5b90600052602060002001549050806008838154811061240957612408613501565b5b906000526020600020018190555081600960008381526020019081526020016000208190555060096000858152602001908152602001600020600090556008805480612458576124576134d2565b5b6001900381819060005260206000200160009055905550505050565b600061247f83610f02565b905081600660008573ffffffffffffffffffffffffffffffffffffffff1673ffffffffffffffffffffffffffffffffffffffff168152602001908152602001600020600083815260200190815260200160002081905550806007600084815260200190815260200160002081905550505050565b6000808273ffffffffffffffffffffffffffffffffffffffff163b119050919050565b82805461252290613368565b90600052602060002090601f016020900481019282612544576000855561258b565b82601f1061255d57805160ff191683800117855561258b565b8280016001018555821561258b579182015b8281111561258a57825182559160200191906001019061256f565b5b509050612598919061259c565b5090565b5b808211156125b557600081600090555060010161259d565b5090565b60006125cc6125c784613152565b61312d565b9050828152602081018484840111156125e8576125e7613564565b5b6125f3848285613326565b509392505050565b600061260e61260984613183565b61312d565b90508281526020810184848401111561262a57612629613564565b5b612635848285613326565b509392505050565b60008135905061264c81613b8d565b92915050565b60008135905061266181613ba4565b92915050565b60008135905061267681613bbb565b92915050565b60008151905061268b81613bbb565b92915050565b600082601f8301126126a6576126a561355f565b5b81356126b68482602086016125b9565b91505092915050565b600082601f8301126126d4576126d361355f565b5b81356126e48482602086016125fb565b91505092915050565b6000813590506126fc81613bd2565b92915050565b6000602082840312156127185761271761356e565b5b60006127268482850161263d565b91505092915050565b600080604083850312156127465761274561356e565b5b60006127548582860161263d565b92505060206127658582860161263d565b9150509250929050565b6000806000606084860312156127885761278761356e565b5b60006127968682870161263d565b93505060206127a78682870161263d565b92505060406127b8868287016126ed565b9150509250925092565b600080600080608085870312156127dc576127db61356e565b5b60006127ea8782880161263d565b94505060206127fb8782880161263d565b935050604061280c878288016126ed565b925050606085013567ffffffffffffffff81111561282d5761282c613569565b5b61283987828801612691565b91505092959194509250565b6000806040838503121561285c5761285b61356e565b5b600061286a8582860161263d565b925050602061287b85828601612652565b9150509250929050565b6000806040838503121561289c5761289b61356e565b5b60006128aa8582860161263d565b92505060206128bb858286016126ed565b9150509250929050565b6000602082840312156128db576128da61356e565b5b60006128e984828501612667565b91505092915050565b6000602082840312156129085761290761356e565b5b60006129168482850161267c565b91505092915050565b600080604083850312156129365761293561356e565b5b600083013567ffffffffffffffff81111561295457612953613569565b5b612960858286016126bf565b9250506020612971858286016126ed565b9150509250929050565b6000602082840312156129915761299061356e565b5b600061299f848285016126ed565b91505092915050565b6129b1816132b2565b82525050565b6129c0816132c4565b82525050565b60006129d1826131b4565b6129db81856131ca565b93506129eb818560208601613335565b6129f481613573565b840191505092915050565b6000612a0a826131bf565b612a1481856131db565b9350612a24818560208601613335565b612a2d81613573565b840191505092915050565b6000612a43826131bf565b612a4d81856131ec565b9350612a5d818560208601613335565b80840191505092915050565b6000612a76604d836131db565b9150612a8182613584565b606082019050919050565b6000612a99602b836131db565b9150612aa4826135f9565b604082019050919050565b6000612abc6032836131db565b9150612ac782613648565b604082019050919050565b6000612adf6025836131db565b9150612aea82613697565b604082019050919050565b6000612b02601c836131db565b9150612b0d826136e6565b602082019050919050565b6000612b256024836131db565b9150612b308261370f565b604082019050919050565b6000612b486019836131db565b9150612b538261375e565b602082019050919050565b6000612b6b602c836131db565b9150612b7682613787565b604082019050919050565b6000612b8e6038836131db565b9150612b99826137d6565b604082019050919050565b6000612bb1602a836131db565b9150612bbc82613825565b604082019050919050565b6000612bd46029836131db565b9150612bdf82613874565b604082019050919050565b6000612bf7602e836131db565b9150612c02826138c3565b604082019050919050565b6000612c1a6020836131db565b9150612c2582613912565b602082019050919050565b6000612c3d6031836131db565b9150612c488261393b565b604082019050919050565b6000612c606021836131db565b9150612c6b8261398a565b604082019050919050565b6000612c83602c836131db565b9150612c8e826139d9565b604082019050919050565b6000612ca6602f836131db565b9150612cb182613a28565b604082019050919050565b6000612cc96021836131db565b9150612cd482613a77565b604082019050919050565b6000612cec6031836131db565b9150612cf782613ac6565b604082019050919050565b6000612d0f6011836131db565b9150612d1a82613b15565b602082019050919050565b6000612d32602c836131db565b9150612d3d82613b3e565b604082019050919050565b612d518161331c565b82525050565b6000612d638285612a38565b9150612d6f8284612a38565b91508190509392505050565b6000602082019050612d9060008301846129a8565b92915050565b6000608082019050612dab60008301876129a8565b612db860208301866129a8565b612dc56040830185612d48565b8181036060830152612dd781846129c6565b905095945050505050565b6000602082019050612df760008301846129b7565b92915050565b60006020820190508181036000830152612e1781846129ff565b905092915050565b60006020820190508181036000830152612e3881612a69565b9050919050565b60006020820190508181036000830152612e5881612a8c565b9050919050565b60006020820190508181036000830152612e7881612aaf565b9050919050565b60006020820190508181036000830152612e9881612ad2565b9050919050565b60006020820190508181036000830152612eb881612af5565b9050919050565b60006020820190508181036000830152612ed881612b18565b9050919050565b60006020820190508181036000830152612ef881612b3b565b9050919050565b60006020820190508181036000830152612f1881612b5e565b9050919050565b60006020820190508181036000830152612f3881612b81565b9050919050565b60006020820190508181036000830152612f5881612ba4565b9050919050565b60006020820190508181036000830152612f7881612bc7565b9050919050565b60006020820190508181036000830152612f9881612bea565b9050919050565b60006020820190508181036000830152612fb881612c0d565b9050919050565b60006020820190508181036000830152612fd881612c30565b9050919050565b60006020820190508181036000830152612ff881612c53565b9050919050565b6000602082019050818103600083015261301881612c76565b9050919050565b6000602082019050818103600083015261303881612c99565b9050919050565b6000602082019050818103600083015261305881612cbc565b9050919050565b6000602082019050818103600083015261307881612cdf565b9050919050565b6000602082019050818103600083015261309881612d02565b9050919050565b600060208201905081810360008301526130b881612d25565b9050919050565b60006020820190506130d46000830184612d48565b92915050565b600060a0820190506130ef6000830188612d48565b6130fc6020830187612d48565b61310960408301866129a8565b61311660608301856129a8565b6131236080830184612d48565b9695505050505050565b6000613137613148565b9050613143828261339a565b919050565b6000604051905090565b600067ffffffffffffffff82111561316d5761316c613530565b5b61317682613573565b9050602081019050919050565b600067ffffffffffffffff82111561319e5761319d613530565b5b6131a782613573565b9050602081019050919050565b600081519050919050565b600081519050919050565b600082825260208201905092915050565b600082825260208201905092915050565b600081905092915050565b60006132028261331c565b915061320d8361331c565b9250827fffffffffffffffffffffffffffffffffffffffffffffffffffffffffffffffff0382111561324257613241613445565b5b828201905092915050565b60006132588261331c565b91506132638361331c565b92508261327357613272613474565b5b828204905092915050565b60006132898261331c565b91506132948361331c565b9250828210156132a7576132a6613445565b5b828203905092915050565b60006132bd826132fc565b9050919050565b60008115159050919050565b60007fffffffff0000000000000000000000000000000000000000000000000000000082169050919050565b600073ffffffffffffffffffffffffffffffffffffffff82169050919050565b6000819050919050565b82818337600083830152505050565b60005b83811015613353578082015181840152602081019050613338565b83811115613362576000848401525b50505050565b6000600282049050600182168061338057607f821691505b60208210811415613394576133936134a3565b5b50919050565b6133a382613573565b810181811067ffffffffffffffff821117156133c2576133c1613530565b5b80604052505050565b60006133d68261331c565b91507fffffffffffffffffffffffffffffffffffffffffffffffffffffffffffffffff82141561340957613408613445565b5b600182019050919050565b600061341f8261331c565b915061342a8361331c565b92508261343a57613439613474565b5b828206905092915050565b7f4e487b7100000000000000000000000000000000000000000000000000000000600052601160045260246000fd5b7f4e487b7100000000000000000000000000000000000000000000000000000000600052601260045260246000fd5b7f4e487b7100000000000000000000000000000000000000000000000000000000600052602260045260246000fd5b7f4e487b7100000000000000000000000000000000000000000000000000000000600052603160045260246000fd5b7f4e487b7100000000000000000000000000000000000000000000000000000000600052603260045260246000fd5b7f4e487b7100000000000000000000000000000000000000000000000000000000600052604160045260246000fd5b600080fd5b600080fd5b600080fd5b600080fd5b6000601f19601f8301169050919050565b7f596f7520617265206e6f7420616c6c6f77656420746f206d696e74206120636160008201527f72642c206265636175736520796f7520617265206e6f7420616e2061646d696e60208201527f206f7220746865206f776e657200000000000000000000000000000000000000604082015250565b7f455243373231456e756d657261626c653a206f776e657220696e646578206f7560008201527f74206f6620626f756e6473000000000000000000000000000000000000000000602082015250565b7f4552433732313a207472616e7366657220746f206e6f6e20455243373231526560008201527f63656976657220696d706c656d656e7465720000000000000000000000000000602082015250565b7f4552433732313a207472616e736665722066726f6d20696e636f72726563742060008201527f6f776e6572000000000000000000000000000000000000000000000000000000602082015250565b7f4552433732313a20746f6b656e20616c7265616479206d696e74656400000000600082015250565b7f4552433732313a207472616e7366657220746f20746865207a65726f2061646460008201527f7265737300000000000000000000000000000000000000000000000000000000602082015250565b7f4552433732313a20617070726f766520746f2063616c6c657200000000000000600082015250565b7f4552433732313a206f70657261746f7220717565727920666f72206e6f6e657860008201527f697374656e7420746f6b656e0000000000000000000000000000000000000000602082015250565b7f4552433732313a20617070726f76652063616c6c6572206973206e6f74206f7760008201527f6e6572206e6f7220617070726f76656420666f7220616c6c0000000000000000602082015250565b7f4552433732313a2062616c616e636520717565727920666f7220746865207a6560008201527f726f206164647265737300000000000000000000000000000000000000000000602082015250565b7f4552433732313a206f776e657220717565727920666f72206e6f6e657869737460008201527f656e7420746f6b656e0000000000000000000000000000000000000000000000602082015250565b7f45524337323155524953746f726167653a2055524920736574206f66206e6f6e60008201527f6578697374656e7420746f6b656e000000000000000000000000000000000000602082015250565b7f4552433732313a206d696e7420746f20746865207a65726f2061646472657373600082015250565b7f45524337323155524953746f726167653a2055524920717565727920666f722060008201527f6e6f6e6578697374656e7420746f6b656e000000000000000000000000000000602082015250565b7f54686973206164647265737320697320616e2061646d696e20616c726561647960008201527f2100000000000000000000000000000000000000000000000000000000000000602082015250565b7f4552433732313a20617070726f76656420717565727920666f72206e6f6e657860008201527f697374656e7420746f6b656e0000000000000000000000000000000000000000602082015250565b7f4552433732314d657461646174613a2055524920717565727920666f72206e6f60008201527f6e6578697374656e7420746f6b656e0000000000000000000000000000000000602082015250565b7f4552433732313a20617070726f76616c20746f2063757272656e74206f776e6560008201527f7200000000000000000000000000000000000000000000000000000000000000602082015250565b7f4552433732313a207472616e736665722063616c6c6572206973206e6f74206f60008201527f776e6572206e6f7220617070726f766564000000000000000000000000000000602082015250565b7f594f5520415245204e4f542041444d494e000000000000000000000000000000600082015250565b7f455243373231456e756d657261626c653a20676c6f62616c20696e646578206f60008201527f7574206f6620626f756e64730000000000000000000000000000000000000000602082015250565b613b96816132b2565b8114613ba157600080fd5b50565b613bad816132c4565b8114613bb857600080fd5b50565b613bc4816132d0565b8114613bcf57600080fd5b50565b613bdb8161331c565b8114613be657600080fd5b5056fea26469706673582212201bb5518c2f5dd3cb0dd7cdc020e6b6aec10f072a3ec0237f218a2a7bd343c76464736f6c63430008070033",
  "linkReferences": {},
  "deployedLinkReferences": {}
}