{
  "_format": "hh-sol-artifact-1",
  "contractName": "Soccer",
  "sourceName": "contracts/Soccer.sol",
  "abi": [
    {
      "inputs": [],
      "stateMutability": "nonpayable",
      "type": "constructor"
    },
    {
      "anonymous": false,
      "inputs": [
        {
          "indexed": true,
          "internalType": "address",
          "name": "owner",
          "type": "address"
        },
        {
          "indexed": true,
          "internalType": "address",
          "name": "approved",
          "type": "address"
        },
        {
          "indexed": true,
          "internalType": "uint256",
          "name": "tokenId",
          "type": "uint256"
        }
      ],
      "name": "Approval",
      "type": "event"
    },
    {
      "anonymous": false,
      "inputs": [
        {
          "indexed": true,
          "internalType": "address",
          "name": "owner",
          "type": "address"
        },
        {
          "indexed": true,
          "internalType": "address",
          "name": "operator",
          "type": "address"
        },
        {
          "indexed": false,
          "internalType": "bool",
          "name": "approved",
          "type": "bool"
        }
      ],
      "name": "ApprovalForAll",
      "type": "event"
    },
    {
      "anonymous": false,
      "inputs": [
        {
          "indexed": true,
          "internalType": "address",
          "name": "from",
          "type": "address"
        },
        {
          "indexed": true,
          "internalType": "address",
          "name": "to",
          "type": "address"
        },
        {
          "indexed": true,
          "internalType": "uint256",
          "name": "tokenId",
          "type": "uint256"
        }
      ],
      "name": "Transfer",
      "type": "event"
    },
    {
      "anonymous": false,
      "inputs": [
        {
          "indexed": true,
          "internalType": "address",
          "name": "from",
          "type": "address"
        },
        {
          "indexed": true,
          "internalType": "address",
          "name": "to",
          "type": "address"
        },
        {
          "indexed": true,
          "internalType": "uint256",
          "name": "id",
          "type": "uint256"
        },
        {
          "indexed": false,
          "internalType": "uint256",
          "name": "price",
          "type": "uint256"
        }
      ],
      "name": "cardSold",
      "type": "event"
    },
    {
      "inputs": [
        {
          "internalType": "address",
          "name": "addr",
          "type": "address"
        }
      ],
      "name": "addCreator",
      "outputs": [],
      "stateMutability": "nonpayable",
      "type": "function"
    },
    {
      "inputs": [
        {
          "internalType": "address",
          "name": "",
          "type": "address"
        }
      ],
      "name": "admins",
      "outputs": [
        {
          "internalType": "bool",
          "name": "",
          "type": "bool"
        }
      ],
      "stateMutability": "view",
      "type": "function"
    },
    {
      "inputs": [
        {
          "internalType": "address",
          "name": "to",
          "type": "address"
        },
        {
          "internalType": "uint256",
          "name": "tokenId",
          "type": "uint256"
        }
      ],
      "name": "approve",
      "outputs": [],
      "stateMutability": "nonpayable",
      "type": "function"
    },
    {
      "inputs": [
        {
          "internalType": "address",
          "name": "owner",
          "type": "address"
        }
      ],
      "name": "balanceOf",
      "outputs": [
        {
          "internalType": "uint256",
          "name": "",
          "type": "uint256"
        }
      ],
      "stateMutability": "view",
      "type": "function"
    },
    {
      "inputs": [
        {
          "internalType": "uint256",
          "name": "id",
          "type": "uint256"
        }
      ],
      "name": "buyCardFromMarket",
      "outputs": [],
      "stateMutability": "payable",
      "type": "function"
    },
    {
      "inputs": [
        {
          "internalType": "uint256",
          "name": "",
          "type": "uint256"
        }
      ],
      "name": "cardCreator",
      "outputs": [
        {
          "internalType": "address",
          "name": "",
          "type": "address"
        }
      ],
      "stateMutability": "view",
      "type": "function"
    },
    {
      "inputs": [
        {
          "internalType": "uint256",
          "name": "",
          "type": "uint256"
        }
      ],
      "name": "cards",
      "outputs": [
        {
          "internalType": "uint256",
          "name": "id",
          "type": "uint256"
        },
        {
          "internalType": "uint256",
          "name": "createdAt",
          "type": "uint256"
        },
        {
          "internalType": "address",
          "name": "owner",
          "type": "address"
        },
        {
          "internalType": "address",
          "name": "creator",
          "type": "address"
        },
        {
          "internalType": "uint256",
          "name": "totalAmount",
          "type": "uint256"
        },
        {
          "internalType": "uint256",
          "name": "price",
          "type": "uint256"
        }
      ],
      "stateMutability": "view",
      "type": "function"
    },
    {
      "inputs": [
        {
          "internalType": "uint256",
          "name": "tokenId",
          "type": "uint256"
        }
      ],
      "name": "getApproved",
      "outputs": [
        {
          "internalType": "address",
          "name": "",
          "type": "address"
        }
      ],
      "stateMutability": "view",
      "type": "function"
    },
    {
      "inputs": [
        {
          "internalType": "address",
          "name": "owner",
          "type": "address"
        },
        {
          "internalType": "address",
          "name": "operator",
          "type": "address"
        }
      ],
      "name": "isApprovedForAll",
      "outputs": [
        {
          "internalType": "bool",
          "name": "",
          "type": "bool"
        }
      ],
      "stateMutability": "view",
      "type": "function"
    },
    {
      "inputs": [
        {
          "internalType": "string",
          "name": "tokenURI",
          "type": "string"
        },
        {
          "internalType": "uint256",
          "name": "amount",
          "type": "uint256"
        },
        {
          "internalType": "uint256",
          "name": "price",
          "type": "uint256"
        }
      ],
      "name": "mint",
      "outputs": [],
      "stateMutability": "nonpayable",
      "type": "function"
    },
    {
      "inputs": [],
      "name": "name",
      "outputs": [
        {
          "internalType": "string",
          "name": "",
          "type": "string"
        }
      ],
      "stateMutability": "view",
      "type": "function"
    },
    {
      "inputs": [
        {
          "internalType": "uint256",
          "name": "tokenId",
          "type": "uint256"
        }
      ],
      "name": "ownerOf",
      "outputs": [
        {
          "internalType": "address",
          "name": "",
          "type": "address"
        }
      ],
      "stateMutability": "view",
      "type": "function"
    },
    {
      "inputs": [
        {
          "internalType": "address",
          "name": "from",
          "type": "address"
        },
        {
          "internalType": "address",
          "name": "to",
          "type": "address"
        },
        {
          "internalType": "uint256",
          "name": "tokenId",
          "type": "uint256"
        }
      ],
      "name": "safeTransferFrom",
      "outputs": [],
      "stateMutability": "nonpayable",
      "type": "function"
    },
    {
      "inputs": [
        {
          "internalType": "address",
          "name": "from",
          "type": "address"
        },
        {
          "internalType": "address",
          "name": "to",
          "type": "address"
        },
        {
          "internalType": "uint256",
          "name": "tokenId",
          "type": "uint256"
        },
        {
          "internalType": "bytes",
          "name": "_data",
          "type": "bytes"
        }
      ],
      "name": "safeTransferFrom",
      "outputs": [],
      "stateMutability": "nonpayable",
      "type": "function"
    },
    {
      "inputs": [
        {
          "internalType": "address",
          "name": "operator",
          "type": "address"
        },
        {
          "internalType": "bool",
          "name": "approved",
          "type": "bool"
        }
      ],
      "name": "setApprovalForAll",
      "outputs": [],
      "stateMutability": "nonpayable",
      "type": "function"
    },
    {
      "inputs": [
        {
          "internalType": "bytes4",
          "name": "interfaceId",
          "type": "bytes4"
        }
      ],
      "name": "supportsInterface",
      "outputs": [
        {
          "internalType": "bool",
          "name": "",
          "type": "bool"
        }
      ],
      "stateMutability": "view",
      "type": "function"
    },
    {
      "inputs": [],
      "name": "symbol",
      "outputs": [
        {
          "internalType": "string",
          "name": "",
          "type": "string"
        }
      ],
      "stateMutability": "view",
      "type": "function"
    },
    {
      "inputs": [
        {
          "internalType": "uint256",
          "name": "index",
          "type": "uint256"
        }
      ],
      "name": "tokenByIndex",
      "outputs": [
        {
          "internalType": "uint256",
          "name": "",
          "type": "uint256"
        }
      ],
      "stateMutability": "view",
      "type": "function"
    },
    {
      "inputs": [
        {
          "internalType": "address",
          "name": "owner",
          "type": "address"
        },
        {
          "internalType": "uint256",
          "name": "index",
          "type": "uint256"
        }
      ],
      "name": "tokenOfOwnerByIndex",
      "outputs": [
        {
          "internalType": "uint256",
          "name": "",
          "type": "uint256"
        }
      ],
      "stateMutability": "view",
      "type": "function"
    },
    {
      "inputs": [
        {
          "internalType": "uint256",
          "name": "tokenId",
          "type": "uint256"
        }
      ],
      "name": "tokenURI",
      "outputs": [
        {
          "internalType": "string",
          "name": "",
          "type": "string"
        }
      ],
      "stateMutability": "view",
      "type": "function"
    },
    {
      "inputs": [],
      "name": "totalSupply",
      "outputs": [
        {
          "internalType": "uint256",
          "name": "",
          "type": "uint256"
        }
      ],
      "stateMutability": "view",
      "type": "function"
    },
    {
      "inputs": [
        {
          "internalType": "address",
          "name": "from",
          "type": "address"
        },
        {
          "internalType": "address",
          "name": "to",
          "type": "address"
        },
        {
          "internalType": "uint256",
          "name": "tokenId",
          "type": "uint256"
        }
      ],
      "name": "transferFrom",
      "outputs": [],
      "stateMutability": "nonpayable",
      "type": "function"
    }
  ],
  "bytecode": "0x60a06040526064600f553480156200001657600080fd5b506040518060400160405280600c81526020017f536f6363657220436172647300000000000000000000000000000000000000008152506040518060400160405280600481526020017f534f4b520000000000000000000000000000000000000000000000000000000081525081600090805190602001906200009b929190620000f4565b508060019080519060200190620000b4929190620000f4565b5050503373ffffffffffffffffffffffffffffffffffffffff1660808173ffffffffffffffffffffffffffffffffffffffff1660601b8152505062000209565b8280546200010290620001a4565b90600052602060002090601f01602090048101928262000126576000855562000172565b82601f106200014157805160ff191683800117855562000172565b8280016001018555821562000172579182015b828111156200017157825182559160200191906001019062000154565b5b50905062000181919062000185565b5090565b5b80821115620001a057600081600090555060010162000186565b5090565b60006002820490506001821680620001bd57607f821691505b60208210811415620001d457620001d3620001da565b5b50919050565b7f4e487b7100000000000000000000000000000000000000000000000000000000600052602260045260246000fd5b60805160601c6140556200022f600039600081816108690152610c1e01526140556000f3fe6080604052600436106101355760003560e01c8063475749b2116100ab5780638dc107681161006f5780638dc107681461046157806395d89b41146104a3578063a22cb465146104ce578063b88d4fde146104f7578063c87b56dd14610520578063e985e9c51461055d57610135565b8063475749b2146103515780634f6ccce71461038e5780636352211e146103cb5780636ac408e51461040857806370a082311461042457610135565b80631c635ded116100fd5780631c635ded1461023357806323b872dd1461025c5780632f745c59146102855780633b9dce05146102c257806342842e0e146102eb578063429b62e51461031457610135565b806301ffc9a71461013a57806306fdde0314610177578063081812fc146101a2578063095ea7b3146101df57806318160ddd14610208575b600080fd5b34801561014657600080fd5b50610161600480360381019061015c9190612b70565b61059a565b60405161016e9190613109565b60405180910390f35b34801561018357600080fd5b5061018c610614565b6040516101999190613124565b60405180910390f35b3480156101ae57600080fd5b506101c960048036038101906101c49190612c39565b6106a6565b6040516101d691906130a2565b60405180910390f35b3480156101eb57600080fd5b5061020660048036038101906102019190612b30565b61072b565b005b34801561021457600080fd5b5061021d610843565b60405161022a9190613446565b60405180910390f35b34801561023f57600080fd5b5061025a60048036038101906102559190612bca565b610850565b005b34801561026857600080fd5b50610283600480360381019061027e9190612a1a565b610b00565b005b34801561029157600080fd5b506102ac60048036038101906102a79190612b30565b610b60565b6040516102b99190613446565b60405180910390f35b3480156102ce57600080fd5b506102e960048036038101906102e491906129ad565b610c05565b005b3480156102f757600080fd5b50610312600480360381019061030d9190612a1a565b610d7b565b005b34801561032057600080fd5b5061033b600480360381019061033691906129ad565b610d9b565b6040516103489190613109565b60405180910390f35b34801561035d57600080fd5b5061037860048036038101906103739190612c39565b610dbb565b60405161038591906130a2565b60405180910390f35b34801561039a57600080fd5b506103b560048036038101906103b09190612c39565b610dee565b6040516103c29190613446565b60405180910390f35b3480156103d757600080fd5b506103f260048036038101906103ed9190612c39565b610e5f565b6040516103ff91906130a2565b60405180910390f35b610422600480360381019061041d9190612c39565b610f11565b005b34801561043057600080fd5b5061044b600480360381019061044691906129ad565b6111a7565b6040516104589190613446565b60405180910390f35b34801561046d57600080fd5b5061048860048036038101906104839190612c39565b61125f565b60405161049a96959493929190613461565b60405180910390f35b3480156104af57600080fd5b506104b86112db565b6040516104c59190613124565b60405180910390f35b3480156104da57600080fd5b506104f560048036038101906104f09190612af0565b61136d565b005b34801561050357600080fd5b5061051e60048036038101906105199190612a6d565b611383565b005b34801561052c57600080fd5b5061054760048036038101906105429190612c39565b6113e5565b6040516105549190613124565b60405180910390f35b34801561056957600080fd5b50610584600480360381019061057f91906129da565b611537565b6040516105919190613109565b60405180910390f35b60007f780e9d63000000000000000000000000000000000000000000000000000000007bffffffffffffffffffffffffffffffffffffffffffffffffffffffff1916827bffffffffffffffffffffffffffffffffffffffffffffffffffffffff1916148061060d575061060c826115cb565b5b9050919050565b606060008054610623906136fd565b80601f016020809104026020016040519081016040528092919081815260200182805461064f906136fd565b801561069c5780601f106106715761010080835404028352916020019161069c565b820191906000526020600020905b81548152906001019060200180831161067f57829003601f168201915b5050505050905090565b60006106b1826116ad565b6106f0576040517f08c379a00000000000000000000000000000000000000000000000000000000081526004016106e790613366565b60405180910390fd5b6004600083815260200190815260200160002060009054906101000a900473ffffffffffffffffffffffffffffffffffffffff169050919050565b600061073682610e5f565b90508073ffffffffffffffffffffffffffffffffffffffff168373ffffffffffffffffffffffffffffffffffffffff1614156107a7576040517f08c379a000000000000000000000000000000000000000000000000000000000815260040161079e906133a6565b60405180910390fd5b8073ffffffffffffffffffffffffffffffffffffffff166107c6611719565b73ffffffffffffffffffffffffffffffffffffffff1614806107f557506107f4816107ef611719565b611537565b5b610834576040517f08c379a000000000000000000000000000000000000000000000000000000000815260040161082b90613286565b60405180910390fd5b61083e8383611721565b505050565b6000600880549050905090565b3373ffffffffffffffffffffffffffffffffffffffff167f000000000000000000000000000000000000000000000000000000000000000073ffffffffffffffffffffffffffffffffffffffff1614806108f35750600e60003373ffffffffffffffffffffffffffffffffffffffff1673ffffffffffffffffffffffffffffffffffffffff16815260200190815260200160002060009054906101000a900460ff165b610932576040517f08c379a000000000000000000000000000000000000000000000000000000000815260040161092990613146565b60405180910390fd5b60005b82811015610afa57610947600b6117da565b6000610953600b6117f0565b905061095f30826117fe565b61096981866119d8565b33600c600083815260200190815260200160002060006101000a81548173ffffffffffffffffffffffffffffffffffffffff021916908373ffffffffffffffffffffffffffffffffffffffff16021790555060006040518060c001604052808381526020014281526020013073ffffffffffffffffffffffffffffffffffffffff1681526020013373ffffffffffffffffffffffffffffffffffffffff16815260200186815260200185815250905080600d6000848152602001908152602001600020600082015181600001556020820151816001015560408201518160020160006101000a81548173ffffffffffffffffffffffffffffffffffffffff021916908373ffffffffffffffffffffffffffffffffffffffff16021790555060608201518160030160006101000a81548173ffffffffffffffffffffffffffffffffffffffff021916908373ffffffffffffffffffffffffffffffffffffffff1602179055506080820151816004015560a0820151816005015590505050508080610af290613760565b915050610935565b50505050565b610b11610b0b611719565b82611a4c565b610b50576040517f08c379a0000000000000000000000000000000000000000000000000000000008152600401610b47906133e6565b60405180910390fd5b610b5b838383611b2a565b505050565b6000610b6b836111a7565b8210610bac576040517f08c379a0000000000000000000000000000000000000000000000000000000008152600401610ba390613166565b60405180910390fd5b600660008473ffffffffffffffffffffffffffffffffffffffff1673ffffffffffffffffffffffffffffffffffffffff168152602001908152602001600020600083815260200190815260200160002054905092915050565b3373ffffffffffffffffffffffffffffffffffffffff167f000000000000000000000000000000000000000000000000000000000000000073ffffffffffffffffffffffffffffffffffffffff1614610c93576040517f08c379a0000000000000000000000000000000000000000000000000000000008152600401610c8a90613406565b60405180910390fd5b600e60008273ffffffffffffffffffffffffffffffffffffffff1673ffffffffffffffffffffffffffffffffffffffff16815260200190815260200160002060009054906101000a900460ff1615610d20576040517f08c379a0000000000000000000000000000000000000000000000000000000008152600401610d1790613346565b60405180910390fd5b6001600e60008373ffffffffffffffffffffffffffffffffffffffff1673ffffffffffffffffffffffffffffffffffffffff16815260200190815260200160002060006101000a81548160ff02191690831515021790555050565b610d9683838360405180602001604052806000815250611383565b505050565b600e6020528060005260406000206000915054906101000a900460ff1681565b600c6020528060005260406000206000915054906101000a900473ffffffffffffffffffffffffffffffffffffffff1681565b6000610df8610843565b8210610e39576040517f08c379a0000000000000000000000000000000000000000000000000000000008152600401610e3090613426565b60405180910390fd5b60088281548110610e4d57610e4c613896565b5b90600052602060002001549050919050565b6000806002600084815260200190815260200160002060009054906101000a900473ffffffffffffffffffffffffffffffffffffffff169050600073ffffffffffffffffffffffffffffffffffffffff168173ffffffffffffffffffffffffffffffffffffffff161415610f08576040517f08c379a0000000000000000000000000000000000000000000000000000000008152600401610eff906132c6565b60405180910390fd5b80915050919050565b3073ffffffffffffffffffffffffffffffffffffffff16600d600083815260200190815260200160002060020160009054906101000a900473ffffffffffffffffffffffffffffffffffffffff1673ffffffffffffffffffffffffffffffffffffffff1614610fb5576040517f08c379a0000000000000000000000000000000000000000000000000000000008152600401610fac906131e6565b60405180910390fd5b3373ffffffffffffffffffffffffffffffffffffffff16600d600083815260200190815260200160002060020160009054906101000a900473ffffffffffffffffffffffffffffffffffffffff1673ffffffffffffffffffffffffffffffffffffffff16141561105a576040517f08c379a000000000000000000000000000000000000000000000000000000000815260040161105190613246565b60405180910390fd5b34600d600083815260200190815260200160002060050154146110b2576040517f08c379a00000000000000000000000000000000000000000000000000000000081526004016110a9906133c6565b60405180910390fd5b600d6000828152602001908152602001600020600001543373ffffffffffffffffffffffffffffffffffffffff163073ffffffffffffffffffffffffffffffffffffffff167fd22616bbd3b0618324997a61c7b0385a54eb52f39fb0cba7bc4651b786d9cbc1600d60008681526020019081526020016000206005015460405161113c9190613446565b60405180910390a461114f303383611b2a565b33600d600083815260200190815260200160002060020160006101000a81548173ffffffffffffffffffffffffffffffffffffffff021916908373ffffffffffffffffffffffffffffffffffffffff16021790555050565b60008073ffffffffffffffffffffffffffffffffffffffff168273ffffffffffffffffffffffffffffffffffffffff161415611218576040517f08c379a000000000000000000000000000000000000000000000000000000000815260040161120f906132a6565b60405180910390fd5b600360008373ffffffffffffffffffffffffffffffffffffffff1673ffffffffffffffffffffffffffffffffffffffff168152602001908152602001600020549050919050565b600d6020528060005260406000206000915090508060000154908060010154908060020160009054906101000a900473ffffffffffffffffffffffffffffffffffffffff16908060030160009054906101000a900473ffffffffffffffffffffffffffffffffffffffff16908060040154908060050154905086565b6060600180546112ea906136fd565b80601f0160208091040260200160405190810160405280929190818152602001828054611316906136fd565b80156113635780601f1061133857610100808354040283529160200191611363565b820191906000526020600020905b81548152906001019060200180831161134657829003601f168201915b5050505050905090565b61137f611378611719565b8383611d91565b5050565b61139461138e611719565b83611a4c565b6113d3576040517f08c379a00000000000000000000000000000000000000000000000000000000081526004016113ca906133e6565b60405180910390fd5b6113df84848484611efe565b50505050565b60606113f0826116ad565b61142f576040517f08c379a000000000000000000000000000000000000000000000000000000000815260040161142690613326565b60405180910390fd5b6000600a6000848152602001908152602001600020805461144f906136fd565b80601f016020809104026020016040519081016040528092919081815260200182805461147b906136fd565b80156114c85780601f1061149d576101008083540402835291602001916114c8565b820191906000526020600020905b8154815290600101906020018083116114ab57829003601f168201915b5050505050905060006114d9611f5a565b90506000815114156114ef578192505050611532565b60008251111561152457808260405160200161150c92919061307e565b60405160208183030381529060405292505050611532565b61152d84611f71565b925050505b919050565b6000600560008473ffffffffffffffffffffffffffffffffffffffff1673ffffffffffffffffffffffffffffffffffffffff16815260200190815260200160002060008373ffffffffffffffffffffffffffffffffffffffff1673ffffffffffffffffffffffffffffffffffffffff16815260200190815260200160002060009054906101000a900460ff16905092915050565b60007f80ac58cd000000000000000000000000000000000000000000000000000000007bffffffffffffffffffffffffffffffffffffffffffffffffffffffff1916827bffffffffffffffffffffffffffffffffffffffffffffffffffffffff1916148061169657507f5b5e139f000000000000000000000000000000000000000000000000000000007bffffffffffffffffffffffffffffffffffffffffffffffffffffffff1916827bffffffffffffffffffffffffffffffffffffffffffffffffffffffff1916145b806116a657506116a582612018565b5b9050919050565b60008073ffffffffffffffffffffffffffffffffffffffff166002600084815260200190815260200160002060009054906101000a900473ffffffffffffffffffffffffffffffffffffffff1673ffffffffffffffffffffffffffffffffffffffff1614159050919050565b600033905090565b816004600083815260200190815260200160002060006101000a81548173ffffffffffffffffffffffffffffffffffffffff021916908373ffffffffffffffffffffffffffffffffffffffff160217905550808273ffffffffffffffffffffffffffffffffffffffff1661179483610e5f565b73ffffffffffffffffffffffffffffffffffffffff167f8c5be1e5ebec7d5bd14f71427d1e84f3dd0314c0f7b2291e5b200ac8c7c3b92560405160405180910390a45050565b6001816000016000828254019250508190555050565b600081600001549050919050565b600073ffffffffffffffffffffffffffffffffffffffff168273ffffffffffffffffffffffffffffffffffffffff16141561186e576040517f08c379a000000000000000000000000000000000000000000000000000000000815260040161186590613306565b60405180910390fd5b611877816116ad565b156118b7576040517f08c379a00000000000000000000000000000000000000000000000000000000081526004016118ae906131c6565b60405180910390fd5b6118c360008383612082565b6001600360008473ffffffffffffffffffffffffffffffffffffffff1673ffffffffffffffffffffffffffffffffffffffff1681526020019081526020016000206000828254611913919061358c565b92505081905550816002600083815260200190815260200160002060006101000a81548173ffffffffffffffffffffffffffffffffffffffff021916908373ffffffffffffffffffffffffffffffffffffffff160217905550808273ffffffffffffffffffffffffffffffffffffffff16600073ffffffffffffffffffffffffffffffffffffffff167fddf252ad1be2c89b69c2b068fc378daa952ba7f163c4a11628f55a4df523b3ef60405160405180910390a46119d460008383612196565b5050565b6119e1826116ad565b611a20576040517f08c379a0000000000000000000000000000000000000000000000000000000008152600401611a17906132e6565b60405180910390fd5b80600a60008481526020019081526020016000209080519060200190611a479291906127c1565b505050565b6000611a57826116ad565b611a96576040517f08c379a0000000000000000000000000000000000000000000000000000000008152600401611a8d90613266565b60405180910390fd5b6000611aa183610e5f565b90508073ffffffffffffffffffffffffffffffffffffffff168473ffffffffffffffffffffffffffffffffffffffff161480611b1057508373ffffffffffffffffffffffffffffffffffffffff16611af8846106a6565b73ffffffffffffffffffffffffffffffffffffffff16145b80611b215750611b208185611537565b5b91505092915050565b8273ffffffffffffffffffffffffffffffffffffffff16611b4a82610e5f565b73ffffffffffffffffffffffffffffffffffffffff1614611ba0576040517f08c379a0000000000000000000000000000000000000000000000000000000008152600401611b97906131a6565b60405180910390fd5b600073ffffffffffffffffffffffffffffffffffffffff168273ffffffffffffffffffffffffffffffffffffffff161415611c10576040517f08c379a0000000000000000000000000000000000000000000000000000000008152600401611c0790613206565b60405180910390fd5b611c1b838383612082565b611c26600082611721565b6001600360008573ffffffffffffffffffffffffffffffffffffffff1673ffffffffffffffffffffffffffffffffffffffff1681526020019081526020016000206000828254611c769190613613565b925050819055506001600360008473ffffffffffffffffffffffffffffffffffffffff1673ffffffffffffffffffffffffffffffffffffffff1681526020019081526020016000206000828254611ccd919061358c565b92505081905550816002600083815260200190815260200160002060006101000a81548173ffffffffffffffffffffffffffffffffffffffff021916908373ffffffffffffffffffffffffffffffffffffffff160217905550808273ffffffffffffffffffffffffffffffffffffffff168473ffffffffffffffffffffffffffffffffffffffff167fddf252ad1be2c89b69c2b068fc378daa952ba7f163c4a11628f55a4df523b3ef60405160405180910390a4611d8c838383612196565b505050565b8173ffffffffffffffffffffffffffffffffffffffff168373ffffffffffffffffffffffffffffffffffffffff161415611e00576040517f08c379a0000000000000000000000000000000000000000000000000000000008152600401611df790613226565b60405180910390fd5b80600560008573ffffffffffffffffffffffffffffffffffffffff1673ffffffffffffffffffffffffffffffffffffffff16815260200190815260200160002060008473ffffffffffffffffffffffffffffffffffffffff1673ffffffffffffffffffffffffffffffffffffffff16815260200190815260200160002060006101000a81548160ff0219169083151502179055508173ffffffffffffffffffffffffffffffffffffffff168373ffffffffffffffffffffffffffffffffffffffff167f17307eab39ab6107e8899845ad3d59bd9653f200f220920489ca2b5937696c3183604051611ef19190613109565b60405180910390a3505050565b611f09848484611b2a565b611f158484848461219b565b611f54576040517f08c379a0000000000000000000000000000000000000000000000000000000008152600401611f4b90613186565b60405180910390fd5b50505050565b606060405180602001604052806000815250905090565b6060611f7c826116ad565b611fbb576040517f08c379a0000000000000000000000000000000000000000000000000000000008152600401611fb290613386565b60405180910390fd5b6000611fc5611f5a565b90506000815111611fe55760405180602001604052806000815250612010565b80611fef84612332565b60405160200161200092919061307e565b6040516020818303038152906040525b915050919050565b60007f01ffc9a7000000000000000000000000000000000000000000000000000000007bffffffffffffffffffffffffffffffffffffffffffffffffffffffff1916827bffffffffffffffffffffffffffffffffffffffffffffffffffffffff1916149050919050565b61208d838383612493565b600073ffffffffffffffffffffffffffffffffffffffff168373ffffffffffffffffffffffffffffffffffffffff1614156120d0576120cb81612498565b61210f565b8173ffffffffffffffffffffffffffffffffffffffff168373ffffffffffffffffffffffffffffffffffffffff161461210e5761210d83826124e1565b5b5b600073ffffffffffffffffffffffffffffffffffffffff168273ffffffffffffffffffffffffffffffffffffffff1614156121525761214d8161264e565b612191565b8273ffffffffffffffffffffffffffffffffffffffff168273ffffffffffffffffffffffffffffffffffffffff16146121905761218f828261271f565b5b5b505050565b505050565b60006121bc8473ffffffffffffffffffffffffffffffffffffffff1661279e565b15612325578373ffffffffffffffffffffffffffffffffffffffff1663150b7a026121e5611719565b8786866040518563ffffffff1660e01b815260040161220794939291906130bd565b602060405180830381600087803b15801561222157600080fd5b505af192505050801561225257506040513d601f19601f8201168201806040525081019061224f9190612b9d565b60015b6122d5573d8060008114612282576040519150601f19603f3d011682016040523d82523d6000602084013e612287565b606091505b506000815114156122cd576040517f08c379a00000000000000000000000000000000000000000000000000000000081526004016122c490613186565b60405180910390fd5b805181602001fd5b63150b7a0260e01b7bffffffffffffffffffffffffffffffffffffffffffffffffffffffff1916817bffffffffffffffffffffffffffffffffffffffffffffffffffffffff19161491505061232a565b600190505b949350505050565b6060600082141561237a576040518060400160405280600181526020017f3000000000000000000000000000000000000000000000000000000000000000815250905061248e565b600082905060005b600082146123ac57808061239590613760565b915050600a826123a591906135e2565b9150612382565b60008167ffffffffffffffff8111156123c8576123c76138c5565b5b6040519080825280601f01601f1916602001820160405280156123fa5781602001600182028036833780820191505090505b5090505b60008514612487576001826124139190613613565b9150600a8561242291906137a9565b603061242e919061358c565b60f81b81838151811061244457612443613896565b5b60200101907effffffffffffffffffffffffffffffffffffffffffffffffffffffffffffff1916908160001a905350600a8561248091906135e2565b94506123fe565b8093505050505b919050565b505050565b6008805490506009600083815260200190815260200160002081905550600881908060018154018082558091505060019003906000526020600020016000909190919091505550565b600060016124ee846111a7565b6124f89190613613565b90506000600760008481526020019081526020016000205490508181146125dd576000600660008673ffffffffffffffffffffffffffffffffffffffff1673ffffffffffffffffffffffffffffffffffffffff168152602001908152602001600020600084815260200190815260200160002054905080600660008773ffffffffffffffffffffffffffffffffffffffff1673ffffffffffffffffffffffffffffffffffffffff168152602001908152602001600020600084815260200190815260200160002081905550816007600083815260200190815260200160002081905550505b6007600084815260200190815260200160002060009055600660008573ffffffffffffffffffffffffffffffffffffffff1673ffffffffffffffffffffffffffffffffffffffff16815260200190815260200160002060008381526020019081526020016000206000905550505050565b600060016008805490506126629190613613565b905060006009600084815260200190815260200160002054905060006008838154811061269257612691613896565b5b9060005260206000200154905080600883815481106126b4576126b3613896565b5b90600052602060002001819055508160096000838152602001908152602001600020819055506009600085815260200190815260200160002060009055600880548061270357612702613867565b5b6001900381819060005260206000200160009055905550505050565b600061272a836111a7565b905081600660008573ffffffffffffffffffffffffffffffffffffffff1673ffffffffffffffffffffffffffffffffffffffff168152602001908152602001600020600083815260200190815260200160002081905550806007600084815260200190815260200160002081905550505050565b6000808273ffffffffffffffffffffffffffffffffffffffff163b119050919050565b8280546127cd906136fd565b90600052602060002090601f0160209004810192826127ef5760008555612836565b82601f1061280857805160ff1916838001178555612836565b82800160010185558215612836579182015b8281111561283557825182559160200191906001019061281a565b5b5090506128439190612847565b5090565b5b80821115612860576000816000905550600101612848565b5090565b6000612877612872846134e7565b6134c2565b905082815260208101848484011115612893576128926138f9565b5b61289e8482856136bb565b509392505050565b60006128b96128b484613518565b6134c2565b9050828152602081018484840111156128d5576128d46138f9565b5b6128e08482856136bb565b509392505050565b6000813590506128f781613fc3565b92915050565b60008135905061290c81613fda565b92915050565b60008135905061292181613ff1565b92915050565b60008151905061293681613ff1565b92915050565b600082601f830112612951576129506138f4565b5b8135612961848260208601612864565b91505092915050565b600082601f83011261297f5761297e6138f4565b5b813561298f8482602086016128a6565b91505092915050565b6000813590506129a781614008565b92915050565b6000602082840312156129c3576129c2613903565b5b60006129d1848285016128e8565b91505092915050565b600080604083850312156129f1576129f0613903565b5b60006129ff858286016128e8565b9250506020612a10858286016128e8565b9150509250929050565b600080600060608486031215612a3357612a32613903565b5b6000612a41868287016128e8565b9350506020612a52868287016128e8565b9250506040612a6386828701612998565b9150509250925092565b60008060008060808587031215612a8757612a86613903565b5b6000612a95878288016128e8565b9450506020612aa6878288016128e8565b9350506040612ab787828801612998565b925050606085013567ffffffffffffffff811115612ad857612ad76138fe565b5b612ae48782880161293c565b91505092959194509250565b60008060408385031215612b0757612b06613903565b5b6000612b15858286016128e8565b9250506020612b26858286016128fd565b9150509250929050565b60008060408385031215612b4757612b46613903565b5b6000612b55858286016128e8565b9250506020612b6685828601612998565b9150509250929050565b600060208284031215612b8657612b85613903565b5b6000612b9484828501612912565b91505092915050565b600060208284031215612bb357612bb2613903565b5b6000612bc184828501612927565b91505092915050565b600080600060608486031215612be357612be2613903565b5b600084013567ffffffffffffffff811115612c0157612c006138fe565b5b612c0d8682870161296a565b9350506020612c1e86828701612998565b9250506040612c2f86828701612998565b9150509250925092565b600060208284031215612c4f57612c4e613903565b5b6000612c5d84828501612998565b91505092915050565b612c6f81613647565b82525050565b612c7e81613659565b82525050565b6000612c8f82613549565b612c99818561355f565b9350612ca98185602086016136ca565b612cb281613908565b840191505092915050565b6000612cc882613554565b612cd28185613570565b9350612ce28185602086016136ca565b612ceb81613908565b840191505092915050565b6000612d0182613554565b612d0b8185613581565b9350612d1b8185602086016136ca565b80840191505092915050565b6000612d34604d83613570565b9150612d3f82613919565b606082019050919050565b6000612d57602b83613570565b9150612d628261398e565b604082019050919050565b6000612d7a603283613570565b9150612d85826139dd565b604082019050919050565b6000612d9d602583613570565b9150612da882613a2c565b604082019050919050565b6000612dc0601c83613570565b9150612dcb82613a7b565b602082019050919050565b6000612de3602183613570565b9150612dee82613aa4565b604082019050919050565b6000612e06602483613570565b9150612e1182613af3565b604082019050919050565b6000612e29601983613570565b9150612e3482613b42565b602082019050919050565b6000612e4c601283613570565b9150612e5782613b6b565b602082019050919050565b6000612e6f602c83613570565b9150612e7a82613b94565b604082019050919050565b6000612e92603883613570565b9150612e9d82613be3565b604082019050919050565b6000612eb5602a83613570565b9150612ec082613c32565b604082019050919050565b6000612ed8602983613570565b9150612ee382613c81565b604082019050919050565b6000612efb602e83613570565b9150612f0682613cd0565b604082019050919050565b6000612f1e602083613570565b9150612f2982613d1f565b602082019050919050565b6000612f41603183613570565b9150612f4c82613d48565b604082019050919050565b6000612f64602183613570565b9150612f6f82613d97565b604082019050919050565b6000612f87602c83613570565b9150612f9282613de6565b604082019050919050565b6000612faa602f83613570565b9150612fb582613e35565b604082019050919050565b6000612fcd602183613570565b9150612fd882613e84565b604082019050919050565b6000612ff0600c83613570565b9150612ffb82613ed3565b602082019050919050565b6000613013603183613570565b915061301e82613efc565b604082019050919050565b6000613036601183613570565b915061304182613f4b565b602082019050919050565b6000613059602c83613570565b915061306482613f74565b604082019050919050565b613078816136b1565b82525050565b600061308a8285612cf6565b91506130968284612cf6565b91508190509392505050565b60006020820190506130b76000830184612c66565b92915050565b60006080820190506130d26000830187612c66565b6130df6020830186612c66565b6130ec604083018561306f565b81810360608301526130fe8184612c84565b905095945050505050565b600060208201905061311e6000830184612c75565b92915050565b6000602082019050818103600083015261313e8184612cbd565b905092915050565b6000602082019050818103600083015261315f81612d27565b9050919050565b6000602082019050818103600083015261317f81612d4a565b9050919050565b6000602082019050818103600083015261319f81612d6d565b9050919050565b600060208201905081810360008301526131bf81612d90565b9050919050565b600060208201905081810360008301526131df81612db3565b9050919050565b600060208201905081810360008301526131ff81612dd6565b9050919050565b6000602082019050818103600083015261321f81612df9565b9050919050565b6000602082019050818103600083015261323f81612e1c565b9050919050565b6000602082019050818103600083015261325f81612e3f565b9050919050565b6000602082019050818103600083015261327f81612e62565b9050919050565b6000602082019050818103600083015261329f81612e85565b9050919050565b600060208201905081810360008301526132bf81612ea8565b9050919050565b600060208201905081810360008301526132df81612ecb565b9050919050565b600060208201905081810360008301526132ff81612eee565b9050919050565b6000602082019050818103600083015261331f81612f11565b9050919050565b6000602082019050818103600083015261333f81612f34565b9050919050565b6000602082019050818103600083015261335f81612f57565b9050919050565b6000602082019050818103600083015261337f81612f7a565b9050919050565b6000602082019050818103600083015261339f81612f9d565b9050919050565b600060208201905081810360008301526133bf81612fc0565b9050919050565b600060208201905081810360008301526133df81612fe3565b9050919050565b600060208201905081810360008301526133ff81613006565b9050919050565b6000602082019050818103600083015261341f81613029565b9050919050565b6000602082019050818103600083015261343f8161304c565b9050919050565b600060208201905061345b600083018461306f565b92915050565b600060c082019050613476600083018961306f565b613483602083018861306f565b6134906040830187612c66565b61349d6060830186612c66565b6134aa608083018561306f565b6134b760a083018461306f565b979650505050505050565b60006134cc6134dd565b90506134d8828261372f565b919050565b6000604051905090565b600067ffffffffffffffff821115613502576135016138c5565b5b61350b82613908565b9050602081019050919050565b600067ffffffffffffffff821115613533576135326138c5565b5b61353c82613908565b9050602081019050919050565b600081519050919050565b600081519050919050565b600082825260208201905092915050565b600082825260208201905092915050565b600081905092915050565b6000613597826136b1565b91506135a2836136b1565b9250827fffffffffffffffffffffffffffffffffffffffffffffffffffffffffffffffff038211156135d7576135d66137da565b5b828201905092915050565b60006135ed826136b1565b91506135f8836136b1565b92508261360857613607613809565b5b828204905092915050565b600061361e826136b1565b9150613629836136b1565b92508282101561363c5761363b6137da565b5b828203905092915050565b600061365282613691565b9050919050565b60008115159050919050565b60007fffffffff0000000000000000000000000000000000000000000000000000000082169050919050565b600073ffffffffffffffffffffffffffffffffffffffff82169050919050565b6000819050919050565b82818337600083830152505050565b60005b838110156136e85780820151818401526020810190506136cd565b838111156136f7576000848401525b50505050565b6000600282049050600182168061371557607f821691505b6020821081141561372957613728613838565b5b50919050565b61373882613908565b810181811067ffffffffffffffff82111715613757576137566138c5565b5b80604052505050565b600061376b826136b1565b91507fffffffffffffffffffffffffffffffffffffffffffffffffffffffffffffffff82141561379e5761379d6137da565b5b600182019050919050565b60006137b4826136b1565b91506137bf836136b1565b9250826137cf576137ce613809565b5b828206905092915050565b7f4e487b7100000000000000000000000000000000000000000000000000000000600052601160045260246000fd5b7f4e487b7100000000000000000000000000000000000000000000000000000000600052601260045260246000fd5b7f4e487b7100000000000000000000000000000000000000000000000000000000600052602260045260246000fd5b7f4e487b7100000000000000000000000000000000000000000000000000000000600052603160045260246000fd5b7f4e487b7100000000000000000000000000000000000000000000000000000000600052603260045260246000fd5b7f4e487b7100000000000000000000000000000000000000000000000000000000600052604160045260246000fd5b600080fd5b600080fd5b600080fd5b600080fd5b6000601f19601f8301169050919050565b7f596f7520617265206e6f7420616c6c6f77656420746f206d696e74206120636160008201527f72642c206265636175736520796f7520617265206e6f7420616e2061646d696e60208201527f206f7220746865206f776e657200000000000000000000000000000000000000604082015250565b7f455243373231456e756d657261626c653a206f776e657220696e646578206f7560008201527f74206f6620626f756e6473000000000000000000000000000000000000000000602082015250565b7f4552433732313a207472616e7366657220746f206e6f6e20455243373231526560008201527f63656976657220696d706c656d656e7465720000000000000000000000000000602082015250565b7f4552433732313a207472616e736665722066726f6d20696e636f72726563742060008201527f6f776e6572000000000000000000000000000000000000000000000000000000602082015250565b7f4552433732313a20746f6b656e20616c7265616479206d696e74656400000000600082015250565b7f546865206d61726b657420646f6573206e6f74206f776e20746869732063617260008201527f6400000000000000000000000000000000000000000000000000000000000000602082015250565b7f4552433732313a207472616e7366657220746f20746865207a65726f2061646460008201527f7265737300000000000000000000000000000000000000000000000000000000602082015250565b7f4552433732313a20617070726f766520746f2063616c6c657200000000000000600082015250565b7f596f75206f776e20746869732063617264210000000000000000000000000000600082015250565b7f4552433732313a206f70657261746f7220717565727920666f72206e6f6e657860008201527f697374656e7420746f6b656e0000000000000000000000000000000000000000602082015250565b7f4552433732313a20617070726f76652063616c6c6572206973206e6f74206f7760008201527f6e6572206e6f7220617070726f76656420666f7220616c6c0000000000000000602082015250565b7f4552433732313a2062616c616e636520717565727920666f7220746865207a6560008201527f726f206164647265737300000000000000000000000000000000000000000000602082015250565b7f4552433732313a206f776e657220717565727920666f72206e6f6e657869737460008201527f656e7420746f6b656e0000000000000000000000000000000000000000000000602082015250565b7f45524337323155524953746f726167653a2055524920736574206f66206e6f6e60008201527f6578697374656e7420746f6b656e000000000000000000000000000000000000602082015250565b7f4552433732313a206d696e7420746f20746865207a65726f2061646472657373600082015250565b7f45524337323155524953746f726167653a2055524920717565727920666f722060008201527f6e6f6e6578697374656e7420746f6b656e000000000000000000000000000000602082015250565b7f54686973206164647265737320697320616e2061646d696e20616c726561647960008201527f2100000000000000000000000000000000000000000000000000000000000000602082015250565b7f4552433732313a20617070726f76656420717565727920666f72206e6f6e657860008201527f697374656e7420746f6b656e0000000000000000000000000000000000000000602082015250565b7f4552433732314d657461646174613a2055524920717565727920666f72206e6f60008201527f6e6578697374656e7420746f6b656e0000000000000000000000000000000000602082015250565b7f4552433732313a20617070726f76616c20746f2063757272656e74206f776e6560008201527f7200000000000000000000000000000000000000000000000000000000000000602082015250565b7f57726f6e67207072696365210000000000000000000000000000000000000000600082015250565b7f4552433732313a207472616e736665722063616c6c6572206973206e6f74206f60008201527f776e6572206e6f7220617070726f766564000000000000000000000000000000602082015250565b7f594f5520415245204e4f542041444d494e000000000000000000000000000000600082015250565b7f455243373231456e756d657261626c653a20676c6f62616c20696e646578206f60008201527f7574206f6620626f756e64730000000000000000000000000000000000000000602082015250565b613fcc81613647565b8114613fd757600080fd5b50565b613fe381613659565b8114613fee57600080fd5b50565b613ffa81613665565b811461400557600080fd5b50565b614011816136b1565b811461401c57600080fd5b5056fea2646970667358221220392b167b461419f0ec9c589be7eb0afc209b9ee1dca4055d17ae8f43ca404e4564736f6c63430008070033",
  "linkReferences": {},
  "deployedLinkReferences": {}
}